:100000000C942A000C9434000C9434000C943400AA
:100010000C9434000C9434000C9434000C94340090
:100020000C9434000C9434000C9434000C94340080
:100030000C9434000C9434000C9434000C94340070
:100040000C9434000C9434000C9434000C94340060
:100050000C94340011241FBECFE5D4E0DEBFCDBF29
:100060000E9464000C94A2000C940000DF93CF93D4
:1000700000D000D000D0CDB7DEB79E838D831C8228
:100080001B8212C01A82198205C089819A81019649
:100090009A83898389819A818F3F9105B0F38B81FF
:1000A0009C8101969C838B832D813E818B819C81D9
:1000B0008217930738F326960FB6F894DEBF0FBE6B
:1000C000CDBFCF91DF910895DF93CF93CDB7DEB74A
:1000D000A1E3B0E0E1E3F0E0808180618C93A1E3F3
:1000E000B0E0E1E3F0E080818E7F8C93A2E3B0E0AA
:1000F000E2E3F0E080818E7F8C93E0E3F0E08081AA
:10010000882F90E0817090708823B9F3A2E3B0E06B
:10011000E2E3F0E0808180618C9388EE93E00E94BE
:100120003600A2E3B0E0E2E3F0E080818F7E8C93C2
:10013000E0E3F0E08081882F90E081709070882368
:08014000B9F7DBCFF894FFCF03
:00000001FF
