:100000000C942A000C9434000C9434000C943400AA
:100010000C9434000C9434000C9434000C94340090
:100020000C9434000C9434000C9434000C94340080
:100030000C9434000C9434000C9434000C94340070
:100040000C9434000C9434000C9434000C94340060
:100050000C94340011241FBECFE5D4E0DEBFCDBF29
:100060000E9464000C94C7000C940000DF93CF93AF
:1000700000D000D000D0CDB7DEB79E838D831C8228
:100080001B8212C01A82198205C089819A81019649
:100090009A83898389819A818F3F9105B0F38B81FF
:1000A0009C8101969C838B832D813E818B819C81D9
:1000B0008217930738F326960FB6F894DEBF0FBE6B
:1000C000CDBFCF91DF910895DF93CF9300D000D0C3
:1000D000CDB7DEB7A1E3B0E0E1E3F0E0808180627C
:1000E0008C93A1E3B0E0E1E3F0E0808180648C9345
:1000F000A1E3B0E0E1E3F0E0808180688C9385E0EB
:1001000090E09C838B8319C0A2E3B0E0E2E3F0E0CF
:100110008081282F81E090E00B8002C0880F991F1A
:100120000A94E2F7822B8C9388EE93E00E943600CB
:100130008B819C8101969C838B838B819C818830F1
:10014000910514F387E090E09A8389831AC0A2E3B3
:10015000B0E0E2E3F0E08081282F81E090E00980C8
:1001600002C0880F991F0A94E2F7809582238C932E
:1001700088EE93E00E94360089819A8101979A83E4
:10018000898389819A81853091050CF7B8CFF894DD
:02019000FFCF9F
:00000001FF
