:020000040800F2
:1000000000280020CD0400081D0500081D0500087B
:100010001D0500081D0500081D0500080000000062
:100020000000000000000000000000001D050008A6
:100030001D050008000000001D0500081D05000842
:100040001D0500081D0500081D0500081D05000808
:100050001D0500081D0500081D0500081D050008F8
:100060001D0500081D0500081D0500081D050008E8
:100070001D0500081D0500081D0500081D050008D8
:100080001D0500081D0500081D0500081D050008C8
:100090001D0500081D0500081D0500081D050008B8
:1000A0001D0500081D0500081D0500081D050008A8
:1000B0001D0500081D0500081D0500081D05000898
:1000C0001D0500081D0500081D0500081D05000888
:1000D0001D0500081D0500081D0500081D05000878
:1000E0001D0500081D050008000000001D05000892
:1000F0001D0500081D0500081D0500081D05000858
:100100001D0500081D0500081D0500081D05000847
:100110001D0500081D0500081D0500081D05000837
:100120001D0500081D0500081D0500081D05000827
:1001300010B5054C237833B9044B13B10448AFF321
:1001400000800123237010BD00000020000000008B
:100150006805000808B5034B1BB103490348AFF31A
:10016000008008BD000000000400002068050008B1
:1001700080B485B000AF0346FB800023FB73FB888F
:10018000802B49D0802B11DC082B39D0082B06DCC2
:10019000022B2FD0042B30D0012B28D057E0202B5E
:1001A00034D0402B35D0102B2DD050E0B3F5006F5C
:1001B0003ED0B3F5006F09DCB3F5007F32D0B3F564
:1001C000806F32D0B3F5807F29D040E0B3F5005F77
:1001D00034D0B3F5005F03DCB3F5805F2BD036E09D
:1001E000B3F5804F2DD0B3F5004F2DD02FE0002375
:1001F000FB732CE00423FB7329E00823FB7326E048
:100200000C23FB7323E01023FB7320E01423FB7308
:100210001DE01823FB731AE01C23FB7317E0002377
:10022000FB7314E00423FB7311E00823FB730EE05F
:100230000C23FB730BE01023FB7308E01423FB7308
:1002400005E01823FB7302E01C23FB7300BFFB7B5C
:1002500018461437BD4680BC704780B586B000AFE5
:100260007860396000233B613B681B88FF2B01D815
:100270007B6801E07B6804333B613B681B88184660
:10028000FFF776FF0346FB733B691B68FA7B0F2180
:1002900001FA02F2D2431A403B691A600023FB754F
:1002A0003B689B78072B0BD03B689B78062B07D0CD
:1002B0003B689B78042B03D03B689B78052B0ED1C1
:1002C0003B689B78043B9B005AB23B68DB785BB28F
:1002D00013435BB2DBB203F00F03FB752CE03B680A
:1002E0009B78012B03D03B689B78002B07D13B68A0
:1002F0009B789B00DBB203F00F03FB751CE03B68AF
:100300009B78102B02D10423FB7515E00823FB75A5
:100310003B689B78022B07D17B68DB683A681288C0
:100320001A437B68DA6007E07B68DB683A6812880A
:10033000D2431A407B68DA603B691B68F97DFA7B1F
:1003400001FA02F21A433B691A6000BF1837BD4632
:1003500080BD80B485B000AF78600B467B807B6841
:100360009A687B881340002B02D00123FB7301E0C5
:100370000023FB73FB7B18461437BD4680BC7047D7
:1003800080B483B000AF78600B467B807B68DA680E
:100390007B885A407B68DA6000BF0C37BD4680BC62
:1003A0007047000080B400AF074B9B69064A43F0DA
:1003B00004039361044B9B69034A43F00803936170
:1003C00000BFBD4680BC70470010024080B582B0BF
:1003D00000AF0123BB710223BB803B1D19461448AB
:1003E000FFF73BFF0123BB714FF40053BB803B1D64
:1003F00019460F48FFF731FF0423BB710223BB806E
:100400000123FB713B1D19460A48FFF726FF052310
:10041000BB714FF40053BB800123FB713B1D194698
:100420000448FFF71AFF00BF0837BD4680BD00BF74
:1004300000080140000C014080B485B000AF786036
:100440000023FB600BE00023BB6002E0BB680133CC
:10045000BB60BB68FE2BF9D9FB680133FB60FA680F
:100460007B689A42EFD300BF1437BD4680BC70470B
:1004700080B500AFFFF796FFFFF7A8FF02211148F4
:10048000FFF767FF0346002B0BD102210E48FFF751
:1004900077FF00BF02210B48FFF75BFF0346002BED
:1004A000F8D04FF400510748FFF753FF0346012BE4
:1004B00004D14FF400510448FFF762FF0A20FFF710
:1004C000BBFFDBE700080140000C01400D488546FA
:1004D000AFF300800C480D490D4A002302E0D458C8
:1004E000C4500433C4188C42F9D30A4A0A4C00237E
:1004F00001E013600432A242FBD300F011F8FFF7D1
:10050000B7FFFEE7002800200000002000000020C8
:1005100088050008000000201C000020FEE7000005
:1005200070B500250C4E0D4CA41BA410A54209D19A
:1005300000F01AF800250A4E0A4CA41BA410A5428C
:1005400005D170BD56F8253098470135EEE756F8CD
:10055000253098470135F2E780050008800500083E
:100560008005000884050008F8B500BFF8BC08BC89
:100570009E467047F8B500BFF8BC08BC9E46704761
:040580005501000819
:040584003101000839
:04000005080004CD1E
:00000001FF
