:100000000C942A000C94A6180C94D3180C94001984
:100010000C9447000C9447000C9447000C94470044
:100020000C9447000C9447000C94EF1A0C941C1B82
:100030000C9447000C9447000C9447000C94591DF5
:100040000C94A2130C9447000C9447000C944700A6
:100050000C94470011241FBECFE5D4E0DEBFCDBF16
:1000600011E0A0E6B0E0E8EAF9E402C005900D92E4
:10007000A23AB107D9F711E0A2EAB1E001C01D929E
:10008000A13BB107E1F70E94E91D0C94D2240C9426
:100090000000EF92FF920F93DF93CF93CDB7DEB7BF
:1000A00060970FB6F894DEBF0FBECDBFA82F002318
:1000B00009F461C07E010894E11CF11C88E0F7019D
:1000C00011928A95E9F729833A834B835C836D8388
:1000D0007E83AF83988780E2801BE82FFF27E7FDB0
:1000E000F0954D815E816F817885181684F01D86AC
:1000F0001E861F86188A882799278E1B9F0B04C08F
:1001000076956795579547958A95D2F728C0202F01
:10011000332727FD3095DB01CA01022E04C0B695B6
:10012000A795979587950A94D2F78D879E87AF8775
:10013000B88B04C0440F551F661F771FEA95D2F78E
:1001400089819A81AB81BC8104C0B695A7959795AA
:1001500087952A95D2F7482B592B6A2B7B2B4987F9
:100160005A876B877C8729853A854B855C856D85A9
:100170007E85AF8598898A2F60960FB6F894DEBF8A
:100180000FBECDBFCF91DF910F91FF90EF900895FB
:10019000EF92FF920F93DF93CF93CDB7DEB76097C7
:1001A0000FB6F894DEBF0FBECDBFA82F002309F411
:1001B00061C07E010894E11CF11C88E0F7011192F6
:1001C0008A95E9F729833A834B835C836D837E8329
:1001D000AF83988780E2801BE82FFF27E7FDF0952B
:1001E00049815A816B817C81181684F019861A86A0
:1001F0001B861C86882799278E1B9F0B04C0440FE3
:10020000551F661F771F8A95D2F728C0202F3327E6
:1002100027FD3095DB01CA01022E04C0880F991F0B
:10022000AA1FBB1F0A94D2F789879A87AB87BC871E
:1002300004C07695679557954795EA95D2F78D81D5
:100240009E81AF81B88504C0880F991FAA1FBB1F6C
:100250002A95D2F7482B592B6A2B7B2B4D875E872B
:100260006F87788B29853A854B855C856D857E8582
:10027000AF8598898A2F60960FB6F894DEBF0FBEBF
:10028000CDBFCF91DF910F91FF90EF900895EF9246
:10029000FF920F931F937B018C0120E030E040E040
:1002A0005FE40E94BC0A88238CF0C801B70120E0FB
:1002B00030E040E05FE40E9434090E947A0B9B0129
:1002C000AC01205030404040504806C0C801B70142
:1002D0000E947A0B9B01AC01B901CA011F910F91D9
:1002E000FF90EF900895AEE5B0E0E9E7F1E00C94FF
:1002F000FA21A8E04E010894811C911CF4016A2E99
:1003000011926A94E9F729833A834B835C836D8366
:100310007E838F839887CE010996FC011192AA955E
:10032000E9F7A986BA86CB86DC86ED86FE860F873E
:10033000188B29843A844B845C84ED84FE840F8579
:10034000188969807A808B809C806DA67EA68FA696
:1003500098AA6D807E808F809884E114F104010555
:10036000110509F0B3C3621473048404950408F002
:100370003DC100E0201600E0300601E0400600E04C
:10038000500688F41FEF211631044104510439F05E
:1003900030F048E0E42EF12C012D112D18C0EE2490
:1003A000FF24870114C020E0221620E0320620E05E
:1003B000420621E0520630F038E1E32EF12C012D07
:1003C000112D05C020E1E22EF12C012D112DD201BD
:1003D000C1010E2C04C0B695A795979587950A94F0
:1003E000D2F788579F4FDC012C9180E290E0A0E08B
:1003F000B0E08E199F09A00BB10B7C018D01E21AB0
:10040000F10801091109E114F10401051105A1F137
:100410000E2C04C0220C331C441C551C0A94D2F729
:10042000A40193010E2C04C0220F331F441F551F3B
:100430000A94D2F780E290E08E199F096DA47EA401
:100440008FA498A804C096948794779467948A950B
:10045000D2F7622A732A842A952AADA4BEA4CFA417
:10046000D8A804C0AA0CBB1CCC1CDD1CEA94D2F793
:10047000ADA6BEA6CFA6D8AA6201EE24FF24CDAABF
:10048000DEAAEFAAF8AE920181012070307009AFA8
:100490001AAF2BAF3CAFC401B301A70196010E9474
:1004A000B9217B018C01C401B3012DA93EA94FA93B
:1004B00058AD0E94B921C901DA013C014D01C401C6
:1004C000B30129AD3AAD4BAD5CAD0E94DB219B0180
:1004D000AC018701FF24EE24ADA4BEA4CFA4D8A80C
:1004E000C601AA27BB2757016801A82AB92ACA2A28
:1004F000DB2AA216B306C406D506E0F40894610808
:10050000710881089108A20CB31CC41CD51CA2144C
:10051000B304C404D50470F0A216B306C406D5060D
:1005200048F408946108710881089108A20CB31C72
:10053000C41CD51CA21AB30AC40AD50AC601B50147
:100540002DA93EA94FA958AD0E94B9217B018C016C
:10055000C601B5012DA93EA94FA958AD0E94B921E8
:10056000C901DA015C016D01C601B50129AD3AADE1
:100570004BAD5CAD0E94DB219B01AC018701FF24E8
:10058000EE248DA59EA5AFA5B8A9A070B070E82AED
:10059000F92A0A2B1B2BE216F30604071507C0F4F1
:1005A0000894A108B108C108D108E20CF31C041D8D
:1005B000151DE214F3040405150550F0E216F306C8
:1005C0000407150728F40894A108B108C108D10848
:1005D000D3019927882786017501E82AF92A0A2B71
:1005E0001B2BE9AAFAAA0BAB1CABCFC42114310414
:1005F0004104510471F461E070E080E090E020E09B
:1006000030E040E050E00E94B921C901DA011C014C
:100610002D0100E0201600E0300601E0400600E079
:10062000500688F41FEF211631044104510431F0C3
:1006300028F048E050E060E070E017C040E050E093
:1006400060E070E012C020E0221620E0320620E0D8
:10065000420621E0520628F048E150E060E070E0F8
:1006600004C040E150E060E070E0D201C101042E1E
:1006700004C0B695A795979587950A94D2F78857A1
:100680009F4FDC012C91E0E2EE2EF12C012D112D7B
:10069000D801C701841B950BA60BB70B821B9109D0
:1006A000A109B1090097A105B10561F464015301E5
:1006B000A218B308C408D50831E0632E712C812C30
:1006C000912C1EC16F968FAF6F97082E04C0220C1D
:1006D000331C441C551C0A94D2F7EE2DE81B640110
:1006E00053010E2E04C0D694C794B794A7940A94CD
:1006F000D2F7A40193016F960FAC6F9704C0220F3D
:10070000331F441F551F0A94D2F76DA47EA48FA4F3
:1007100098A80E2E04C096948794779467940A94B0
:10072000D2F784017301E22AF32A042B152BE9A6E0
:10073000FAA60BA71CA732018824992492018101F3
:100740002070307021960CAF1DAF2EAF3FAF2197B8
:10075000C601B501A40193010E94B9217B018C015E
:10076000C601B501A40193010E94B921C901DA01B2
:1007700025968CAF9DAFAEAFBFAF2597BC01CD0125
:1007800021962CAD3DAD4EAD5FAD21970E94DB2192
:100790009B01AC018701FF24EE24A9A4BAA4CBA439
:1007A000DCA4C601AA27BB275C016D01AE28BF28C7
:1007B000C02AD12AA216B306C406D50660F525962E
:1007C0006CAD7DAD8EAD9FAD259761507040804082
:1007D000904025966CAF7DAF8EAF9FAF2597A20C52
:1007E000B31CC41CD51CA214B304C404D50498F0D3
:1007F000A216B306C406D50670F46150704080405E
:10080000904025966CAF7DAF8EAF9FAF2597A20C21
:10081000B31CC41CD51CA21AB30AC40AD50AC6014B
:10082000B501A40193010E94B9217B018C01C6018D
:10083000B501A40193010E94B921C901DA013C016B
:100840004D01C401B30121962CAD3DAD4EAD5FAD60
:1008500021970E94DB219B01AC018701FF24EE243C
:1008600089A59AA5ABA5BCA5A070B0705701680179
:10087000A82AB92ACA2ADB2AA216B306C406D506B4
:10088000E0F408946108710881089108A20CB31C77
:10089000C41CD51CA214B304C404D50470F0A21661
:1008A000B306C406D50648F40894610871088108A7
:1008B0009108A20CB31CC41CD51C8DA59EA5AFA588
:1008C000B8A96F960FAC6F9704C0880F991FAA1F25
:1008D000BB1F0A94D2F78DA79EA7AFA7B8ABA21AE9
:1008E000B30AC40AD50A2596ECACFDAC0EAD1FAD1B
:1008F0002597D70199278827682A792A8A2A9B2A47
:1009000082012227332729960CAF1DAF2EAF3FAFB0
:100910002997A2019101407050702D962CAF3DAFE8
:100920004EAF5FAF2D97C601B50129962CAD3DADF9
:100930004EAD5FAD29970E94B9217B018C01C601A4
:10094000B50129962CAD3DAD4EAD5FAD29970E9406
:10095000B921C901DA0161968CAF9DAFAEAFBFAFCF
:100960006197BC01CD012D962CAD3DAD4EAD5FAD77
:100970002D970E94DB219B01AC018701FF24EE240F
:10098000ADA4BEA4CFA4D8A8C601AA27BB275701EF
:100990006801A82AB92ACA2ADB2AA216B306C40605
:1009A000D50660F561966CAD7DAD8EAD9FAD61975E
:1009B000615070408040904061966CAF7DAF8EAFCB
:1009C0009FAF6197A20CB31CC41CD51CA214B30426
:1009D000C404D50498F0A216B306C406D50670F474
:1009E000615070408040904061966CAF7DAF8EAF9B
:1009F0009FAF6197A20CB31CC41CD51CA21AB30AEA
:100A0000C40AD50AC601B50129962CAD3DAD4EAD3F
:100A10005FAD29970E94B9217B018C01C601B50108
:100A200029962CAD3DAD4EAD5FAD29970E94B92101
:100A3000C901DA015C016D01C601B5012D962CAD2D
:100A40003DAD4EAD5FAD2D970E94DB219B01AC010A
:100A50008701FF24EE248DA59EA5AFA5B8A9A0709F
:100A6000B070E82AF92A0A2B1B2BE216F3060407BA
:100A70001507C0F40894A108B108C108D108E20C18
:100A8000F31C041D151DE214F3040405150550F0B4
:100A9000E216F3060407150728F40894A108B10824
:100AA000C108D1086196ECACFDAC0EAD1FAD6197ED
:100AB000D7019927882796018501082B192B2A2B06
:100AC0003B2B09AB1AAB2BAB3CAB62C26E147F0461
:100AD0008006910608F451C220E0E21620E0F206FA
:100AE00021E0020720E0120788F43FEFE316F1044B
:100AF0000105110531F028F048E050E060E070E0B9
:100B000017C040E050E060E070E012C040E0E41642
:100B100040E0F40640E0040741E0140728F048E113
:100B200050E060E070E004C040E150E060E070E060
:100B3000D801C701042E04C0B695A795979587954F
:100B40000A94D2F788579F4FDC012C9130E2A32EF4
:100B5000B12CC12CD12CD601C501841B950BA60B41
:100B6000B70B821B9109A109B1090097A105B10535
:100B700089F4E614F7040805190508F4F2C16DA418
:100B80007EA48FA498A8621473048404950408F0CA
:100B9000E8C1F3C16E968FAF6E97082E04C0EE0CBD
:100BA000FF1C001F111F0A94D2F76A2D681BD20187
:100BB000C101062E04C0B695A795979587950A940E
:100BC000D2F75C016D01AE28BF28C02AD12AADA2A0
:100BD000BEA2CFA2D8A6720161016E960FAC6E972D
:100BE00004C0CC0CDD1CEE1CFF1C0A94D2F7C9A279
:100BF000DAA2EBA2FCA264015301062E04C0D69433
:100C0000C794B794A7940A94D2F7D401C3016E96FF
:100C10000FAC6E9704C0880F991FAA1FBB1F0A94C0
:100C2000D2F7EDA4FEA40FA518A904C01695079548
:100C3000F794E7946A95D2F737014801682A792A30
:100C40008A2A9B2A6D8E7E8E8F8E98A2EDA0FEA0A2
:100C50000FA118A5380188249924980187012070D4
:100C6000307065960CAF1DAF2EAF3FAF6597C601D4
:100C7000B501A40193010E94B9217B018C01C60139
:100C8000B501A40193010E94B921C901DA011C0137
:100C90002D01C201B10165962CAD3DAD4EAD5FADEC
:100CA00065970E94DB219B01AC018701FF24EE24A4
:100CB000AD8CBE8CCF8CD8A0C601AA27BB2757010C
:100CC0006801A82AB92ACA2ADB2AA216B306C406D2
:100CD000D50600F508942108310841085108EDA017
:100CE000FEA00FA118A5AE0CBF1CC01ED11EAE14D5
:100CF000BF04C006D10670F0A216B306C406D5061E
:100D000048F408942108310841085108AE0CBF1C72
:100D1000C01ED11EA21AB30AC40AD50AC601B50163
:100D2000A40193010E94B9217B018C01C601B50188
:100D3000A40193010E94B921C901DA013C014D01CE
:100D4000C401B30165962CAD3DAD4EAD5FAD659769
:100D50000E94DB219B01AC018701FF24EE248D8DD5
:100D60009E8DAF8DB8A1A070B07057016801A82A00
:100D7000B92ACA2ADB2AA216B306C406D50600F58C
:100D8000089461087108810891086DA17EA18FA166
:100D900098A5A60EB71EC81ED91EA616B706C80669
:100DA000D90670F0A216B306C406D50648F4089416
:100DB0006108710881089108A60EB71EC81ED91EC9
:100DC000D601C501821B930BA40BB50B898F9A8F9B
:100DD000AB8FBC8FD1019927882764015301A82AC2
:100DE000B92ACA2ADB2AA9AABAAACBAADCAA8601EE
:100DF00075012FEF3FEF40E050E0E222F3220423A1
:100E00001523A601662777276D964CAF5DAF6EAFB1
:100E10007FAF6D97A9A0BAA0CBA0DCA06FEF7FEF4A
:100E200080E090E0A622B722C822D92289A19AA107
:100E3000ABA1BCA11D0144245524C801B701A601E2
:100E400095010E94DB2169966CAF7DAF8EAF9FAF9D
:100E50006997C801B701A20191010E94DB213B0102
:100E60004C016D966CAD7DAD8EAD9FAD6D97A601BD
:100E700095010E94DB217B018C016D966CAD7DADEF
:100E80008EAD9FAD6D97A20191010E94DB215B01A8
:100E90006C01A8019701260D371D481D591D699643
:100EA0006CAC7DAC8EAC9FAC6997C401AA27BB2704
:100EB000280F391F4A1F5B1F2E153F05400751079A
:100EC00048F4E12CF12C61E0062F112DAE0CBF1C73
:100ED000C01ED11ECA01AA27BB27BC01CD016A0DC5
:100EE0007B1D8C1D9D1D698C7A8C8B8C9C8C661651
:100EF00077068806990640F16615770588059905F5
:100F000009F043C0D9019927882769962CAD3DADDA
:100F10004EAD5FAD699740705070820F931FA41F54
:100F2000B51F2DA53EA54FA558A96E960FAC6E977F
:100F300004C0220F331F441F551F0A94D2F72817ED
:100F400039074A075B0708F509A91AA92BA93CA983
:100F5000015010402040304009AB1AAB2BAB3CABEA
:100F600014C066247724430121E030E040E050E0E3
:100F700029AB3AAB4BAB5CAB0BC066247724430187
:100F800019AA1AAA1BAA1CAA03C066247724430123
:100F9000FE01719688E0DF011D928A95E9F7A9A804
:100FA000BAA8CBA8DCA8A98ABA8ACB8ADC8A6D8ABF
:100FB0007E8A8F8A988E29A93A894B895C89662D09
:100FC0007E898F89988DC25ADF4FE2E10C941622F8
:100FD000A0E0B0E0EEEEF7E00C94FA21DC012B018A
:100FE000FA019C91923008F439C1EB01888182307A
:100FF00008F433C1943069F4843009F02FC111969C
:101000009C9111978981981709F428C1A0E8B0E054
:1010100025C1843009F421C18230A9F4923009F04D
:101020001DC19A01AD0188E0EA010990AE01E90114
:1010300009929E018150C1F7E201898111969C912C
:101040008923818308C1923009F407C112962D903B
:101050003C901397EB018A819B811496AD90BD90D3
:10106000CD90DC901797EC80FD800E811F8191015F
:10107000281B390BB90137FF04C066277727621B8D
:10108000730B603271050CF061C0121613066CF51B
:1010900037014801062E04C096948794779467948C
:1010A0000A94D2F721E030E040E050E004C0220F83
:1010B000331F441F551F6A95D2F7215030404040DE
:1010C00050402E213F214023512321153105410558
:1010D000510521F021E030E040E050E079018A0143
:1010E000E628F728082919293CC0232BD1F1260E20
:1010F000371E35014601062E04C0969487947794D6
:1011000067940A94D2F721E030E040E050E004C058
:10111000220F331F441F551F6A95D2F721503040CC
:10112000404050402A213B214C215D2121153105B1
:101130004105510521F021E030E040E050E0590147
:101140006A01A628B728C828D9280BC0821593059C
:101150002CF01C01AA24BB24650103C0EE24FF244B
:10116000870111969C91D20111968C91981709F4E0
:1011700045C0992339F0A80197012A193B094C0968
:101180005D0906C0A60195012E193F09400B510BC0
:1011900057FD08C01182338222822483358346831F
:1011A00057831DC081E0818333822282882799275B
:1011B000DC01821B930BA40BB50B84839583A68360
:1011C000B7830DC0220F331F441F551F248335835F
:1011D00046835783828193810197938382832481FD
:1011E000358146815781DA01C9010197A109B10909
:1011F0008F5F9F4FAF4FBF4328F30BC09183338264
:101200002282EA0CFB1C0C1D1D1DE482F582068364
:10121000178383E08083248135814681578157FF7E
:101220001AC0C901AA2797FDA095BA2F81709070A6
:10123000A070B0705695479537952795822B932BC4
:10124000A42BB52B84839583A683B7838281938156
:10125000019693838283DF0101C0D201CD01CDB716
:10126000DEB7E2E10C941622A0E2B0E0EAE3F9E096
:101270000C94062269837A838B839C832D833E831F
:101280004F835887E9E0EE2EF12CEC0EFD1ECE01C7
:101290000196B7010E94F20C8E010F5E1F4FCE0126
:1012A0000596B8010E94F20C8A8991E089278A8B01
:1012B000C701B801AE01475E5F4F0E94E8070E9478
:1012C0001D0CA096E6E00C942222A0E2B0E0EBE632
:1012D000F9E00C94062269837A838B839C832D83A7
:1012E0003E834F835887F9E0EF2EF12CEC0EFD1E64
:1012F000CE010196B7010E94F20C8E010F5E1F4FC6
:10130000CE010596B8010E94F20CC701B801AE01EA
:10131000475E5F4F0E94E8070E941D0CA096E6E022
:101320000C942222A0E2B0E0E8E9F9E00C94FA2162
:1013300069837A838B839C832D833E834F83588775
:10134000CE010196BE01675F7F4F0E94F20CCE0175
:101350000596BE016F5E7F4F0E94F20C9985923018
:1013600088F089898230C8F0943019F4823051F4C1
:1013700004C0843029F4923081F480E890E0C6C043
:10138000923049F420E09A858A89981321E02A87CF
:10139000CE010996BBC0823049F420E09A858A8943
:1013A000981321E02A8BCE014196B0C02D843E8453
:1013B0004F8458886D887E888F88988CEE24FF240F
:1013C0008701AA24BB24650140E050E060E070E0A2
:1013D000E0E0F0E0C10181709070892BE9F0E60C4B
:1013E000F71C081D191D9A01AB012A0D3B1D4C1D50
:1013F0005D1D80E090E0A0E0B0E0E614F704080591
:10140000190520F481E090E0A0E0B0E0BA01A90164
:10141000480F591F6A1F7B1FAA0CBB1CCC1CDD1C6C
:1014200097FE08C081E090E0A0E0B0E0A82AB92AC9
:10143000CA2ADB2A3196E032F10549F0660C771CA6
:10144000881C991C5694479437942794C3CFFA85E7
:10145000EA892B893C898B859C85280F391F2E5F53
:101460003F4F17C0CA0181709070892B61F01695AB
:101470000795F794E79480E090E0A0E0B0E8E82AD0
:10148000F92A0A2B1B2B76956795579547952F5F61
:101490003F4F77FDE7CF0CC0440F551F661F771FE6
:1014A00017FD4160EE0CFF1C001F111F2150304042
:1014B000403090E0590790E0690790E4790760F3C5
:1014C0002B8F3C8FDB01CA018F779070A070B070BA
:1014D00080349105A105B10561F447FD0AC0E1140E
:1014E000F1040105110529F0405C5F4F6F4F7F4FFC
:1014F00040781A8EFE1711F081E08A8F4D8F5E8F33
:101500006F8F78A383E0898FCE0149960E941D0CCE
:10151000A096E2E10C941622A8E1B0E0E2E9FAE03C
:101520000C94062269837A838B839C832D833E836C
:101530004F83588789E0E82EF12CEC0EFD1ECE017A
:101540000196B7010E94F20C8E010F5E1F4FCE0173
:101550000596B8010E94F20C8985823040F0898995
:10156000823028F0C701B8010E946A0D01C08FEFD8
:101570006896E6E00C942222A8E1B0E0E2ECFAE002
:101580000C94062269837A838B839C832D833E830C
:101590004F83588789E0E82EF12CEC0EFD1ECE011A
:1015A0000196B7010E94F20C8E010F5E1F4FCE0113
:1015B0000596B8010E94F20C8985823040F0898935
:1015C000823028F0C701B8010E946A0D01C08FEF78
:1015D0006896E6E00C942222A8E1B0E0E2EFFAE09F
:1015E0000C94062269837A838B839C832D833E83AC
:1015F0004F83588789E0E82EF12CEC0EFD1ECE01BA
:101600000196B7010E94F20C8E010F5E1F4FCE01B2
:101610000596B8010E94F20C8985823040F08989D4
:10162000823028F0C701B8010E946A0D01C081E034
:101630006896E6E00C942222A8E0B0E0E2E2FBE04B
:101640000C9403229B01AC0183E08983DA01C90178
:101650008827B7FD83959927AA27BB27B82E211580
:1016600031054105510519F482E089833AC0882388
:10167000A9F0203080E0380780E0480780E858076C
:1016800029F460E070E080E09FEC30C0EE24FF249D
:101690008701E21AF30A040B150B02C079018A01D3
:1016A0008EE1C82ED12CDC82CB82ED82FE820F83AC
:1016B0001887C801B7010E94CE0B019718161906AA
:1016C00084F4082E04C0EE0CFF1C001F111F0A94A6
:1016D000D2F7ED82FE820F831887C81AD90ADC82FE
:1016E000CB82BA82CE0101960E941D0C2896E9E0B9
:1016F0000C941F22ACE0B0E0E0E8FBE00C940A227E
:1017000069837A838B839C83CE010196BE016B5FD4
:101710007F4F0E94F20C8D81823061F1823050F156
:10172000843021F48E81882351F12EC02F81388599
:1017300037FD20C06E812F3131051CF06623F9F092
:1017400023C08EE190E0821B930B29853A854B855F
:101750005C8504C056954795379527958A95D2F7AD
:101760006623B1F050954095309521953F4F4F4FEE
:101770005F4F0EC020E030E040E050E009C02FEFA6
:101780003FEF4FEF5FE704C020E030E040E050E87B
:10179000B901CA012C96E2E00C942622EF92FF9246
:1017A0000F931F937B018C0180E0E81680E0F80620
:1017B00081E0080780E0180788F48FEFE816F1044D
:1017C0000105110531F028F088E090E0A0E0B0E0DC
:1017D00017C080E090E0A0E0B0E012C080E0E81622
:1017E00080E0F80680E0080781E0180728F088E12B
:1017F00090E0A0E0B0E004C080E190E0A0E0B0E0C4
:1018000020E230E040E050E0281B390B4A0B5B0B34
:1018100004C016950795F794E7948A95D2F7F701D7
:10182000E857FF4F8081281B310941095109C9013F
:101830001F910F91FF90EF900895DF92EF92FF922A
:101840000F931F93FC01E480F58006811781D180FE
:101850008081823048F480E090E0A0E1B0E0E82AA6
:10186000F92A0A2B1B2BA5C0843009F49FC08230B3
:1018700021F4EE24FF24870105C0E114F1040105E1
:10188000110519F4E0E0F0E096C0628173819FEFEA
:10189000623879070CF05BC022E83FEF261B370B5C
:1018A0002A3131052CF020E030E040E050E02AC041
:1018B000B801A701022E04C0769567955795479504
:1018C0000A94D2F781E090E0A0E0B0E004C0880F75
:1018D000991FAA1FBB1F2A95D2F70197A109B10929
:1018E0008E219F21A023B1230097A105B10521F0EE
:1018F00081E090E0A0E0B0E09A01AB01282B392B09
:101900004A2B5B2BDA01C9018F779070A070B07001
:1019100080349105A105B10539F427FF09C0205C89
:101920003F4F4F4F5F4F04C0215C3F4F4F4F5F4FC2
:10193000E0E0F0E02030A0E03A07A0E04A07A0E4B1
:101940005A0710F0E1E0F0E079018A0127C0603821
:10195000710564F5FB01E158FF4FD801C7018F778E
:101960009070A070B07080349105A105B10539F474
:10197000E7FE0DC080E490E0A0E0B0E004C08FE39B
:1019800090E0A0E0B0E0E80EF91E0A1F1B1F17FF51
:1019900005C016950795F794E794319687E016955C
:1019A0000795F794E7948A95D1F705C0EE24FF24B4
:1019B0008701EFEFF0E06E2F679566276795902F10
:1019C0009F77D794DD24D7948E2F8695492F462B69
:1019D000582F5D29B701CA011F910F91FF90EF9019
:1019E000DF900895FC01DB01408151812281622F4B
:1019F0006F7770E0221F2227221F9381892F880F83
:101A0000822B282F30E0991F9927991F11969C93BC
:101A1000119721153105A9F541155105610571058C
:101A200011F482E037C082E89FEF13969C938E9367
:101A300012979A01AB0167E0220F331F441F551F15
:101A40006A95D1F783E08C930DC0220F331F441F9A
:101A5000551F12968D919C911397019713969C9305
:101A60008E931297203080E0380780E0480780E4AA
:101A7000580758F314962D933D934D935C93179705
:101A800008952F3F310579F4411551056105710520
:101A900019F484E08C93089564FF03C081E08C9373
:101AA00012C01C9210C02F57304013963C932E93B7
:101AB000129783E08C9387E0440F551F661F771FB2
:101AC0008A95D1F7706414964D935D936D937C93D2
:101AD000179708951F93DC01FB019C91923008F445
:101AE00047C08081823008F443C0943051F411968D
:101AF0001C91843099F58181682F70E0611B710918
:101B00003FC0843021F0923031F48230B9F18181CC
:101B1000882389F12DC011961C9111978230F1F024
:101B200081811817D9F412962D913C9113978281D7
:101B300093818217930794F028173907BCF0149605
:101B40008D919D910D90BC91A02D24813581468170
:101B50005781281739074A075B0718F4112341F00A
:101B60000AC082179307A407B50740F4112319F0A0
:101B700061E070E005C06FEF7FEF02C060E070E0F1
:101B8000CB011F910895DF93CF930F92CDB7DEB7AE
:101B9000E7E3F0E08081E7E3F0E01082ABE3B0E060
:101BA000EBE3F0E0808181608C93ABE3B0E0EBE3AA
:101BB000F0E080818D7F8C930E94DD10ABE3B0E07C
:101BC000EBE3F0E080818E7F8C930F90CF91DF91DB
:101BD0000895DF93CF93CDB7DEB76C970FB6F89427
:101BE000DEBF0FBECDBF80E090E0A0EAB1E4898FF8
:101BF0009A8FAB8FBC8F698D7A8D8B8D9C8D20E0F9
:101C000030E04AE753E40E949209DC01CB018D8B5E
:101C10009E8BAF8BB88F6D897E898F89988D20E0E0
:101C200030E040E85FE30E94EC0A88232CF481E076
:101C300090E09C8B8B8B3FC06D897E898F89988DBE
:101C400020E03FEF4FE757E40E948C0A18164CF54E
:101C5000698D7A8D8B8D9C8D20E030E040E251E4DF
:101C60000E949209DC01CB01BC01CD010E94470119
:101C7000DC01CB019C8B8B8B0FC089E190E09A8BB0
:101C8000898B89899A890197F1F79A8B898B8B893E
:101C90009C8901979C8B8B8B8B899C89009769F71A
:101CA00014C06D897E898F89988D0E944701DC015F
:101CB000CB019C8B8B8B8B899C89988B8F878F8595
:101CC00098890197F1F7988B8F87E7E3F0E08FEF22
:101CD0008083AAE3B0E0EAE3F0E0808187608C9340
:101CE000ABE3B0E0EBE3F0E08081887F8C9380E0B1
:101CF00090E0A0E0B0E48B879C87AD87BE876B85C2
:101D00007C858D859E8520E030E04AE753E40E9483
:101D10009209DC01CB018F839887A987BA876F81ED
:101D2000788589859A8520E030E040E85FE30E946D
:101D3000EC0A88232CF481E090E09E838D833FC0E1
:101D40006F81788589859A8520E03FEF4FE757E4DA
:101D50000E948C0A18164CF56B857C858D859E85B6
:101D600020E030E040E251E40E949209DC01CB0126
:101D7000BC01CD010E944701DC01CB019E838D8314
:101D80000FC089E190E09C838B838B819C810197BC
:101D9000F1F79C838B838D819E8101979E838D8338
:101DA0008D819E81009769F714C06F817885898540
:101DB0009A850E944701DC01CB019E838D838D8132
:101DC0009E819A83898389819A810197F1F79A8309
:101DD00089830E94E20F82E00E94030F88E20E9442
:101DE000030F86E00E94030F80E80E94030F8CE03F
:101DF0000E94030F6C960FB6F894DEBF0FBECDBFE6
:101E0000CF91DF910895DF93CF930F92CDB7DEB7D7
:101E10008983A8E3B0E0E8E3F0E08081982F9F7029
:101E20008981807F892B8C93ABE3B0E0EBE3F0E01A
:101E300080818C7F8C930E94DD10A8E3B0E0E8E302
:101E4000F0E08081282F2F708981882F90E0829583
:101E50009295907F9827807F9827822B8C93ABE375
:101E6000B0E0EBE3F0E080818C7F8C930E94DD108A
:101E70000F90CF91DF910895DF93CF930F92CDB75D
:101E8000DEB78983A8E3B0E0E8E3F0E08081982F33
:101E90009F708981807F892B8C93ABE3B0E0EBE36B
:101EA000F0E0808182608C93ABE3B0E0EBE3F0E0A4
:101EB00080818E7F8C930E94DD10A8E3B0E0E8E380
:101EC000F0E08081282F2F708981882F90E0829503
:101ED0009295907F9827807F9827822B8C93ABE3F5
:101EE000B0E0EBE3F0E0808182608C93ABE3B0E0A4
:101EF000EBE3F0E080818E7F8C930E94DD100F90E9
:101F0000CF91DF910895DF93CF9300D000D0CDB76C
:101F1000DEB79C838B831A82198227C089819A81BC
:101F200001969A838983EB81FC8120818B819C813E
:101F300001969C838B83822F0E943C0F89819A811A
:101F40008031910529F481E060E00E94C10F0DC04D
:101F500089819A818032910541F40E94E20F80E0EC
:101F600060E00E94C10F1A821982EB81FC8180819E
:101F70008823A1F60F900F900F900F90CF91DF91D3
:101F80000895DF93CF9300D0CDB7DEB789836A83FE
:101F90008981882341F48A81803178F48A8180584C
:101FA0000E94030F0AC08981813039F48A8180310F
:101FB00020F48A8180540E94030F0F900F90CF91DC
:101FC000DF910895DF93CF93CDB7DEB781E00E9414
:101FD000030FCF91DF910895DF93CF93CDB7DEB795
:101FE00029970FB6F894DEBF0FBECDBF99878887BB
:101FF00000D000D000D0EDB7FEB73196CE010196EB
:102000009183808380E690E093838283888599859D
:10201000958384830E9431228DB79EB706960FB6B2
:10202000F8949EBF0FBE8DBFCE0101960E94830F14
:1020300029960FB6F894DEBF0FBECDBFCF91DF91CA
:102040000895DF93CF93CDB7DEB7A8970FB6F89476
:10205000DEBF0FBECDBF6F8F78A389A39AA36F8D0C
:1020600078A189A19AA120E030E040E050E00E94F0
:102070008C0A18162CF423E630E038A72FA304C0EE
:1020800044E650E058A74FA38FA198A59E878D875F
:102090006F8D78A189A19AA120E030E040E050E066
:1020A0000E948C0A18164CF42F8D38A149A15AA110
:1020B0002BA33CA34DA35EA30BC08F8D98A1A9A118
:1020C000BAA19C01AD0150582BA33CA34DA35EA324
:1020D0008BA19CA1ADA1BEA189879A87AB87BC8744
:1020E00069857A858B859C850E947A0BDC01CB0102
:1020F00098878F838F819885AA2797FDA095BA2FFF
:10210000BC01CD010E941C0B9B01AC0169857A8545
:102110008B859C850E943409DC01CB018B839C83D9
:10212000AD83BE836B817C818D819E8120E030E414
:102130004CE156E40E949209DC01CB01BC01CD01C7
:102140000E947A0BDC01CB019A838983ADB7BEB7BD
:102150001A970FB6F894BEBF0FBEADBFEDB7FEB76E
:102160003196CE010F969183808386E690E093832B
:1021700082838D859E85958384838F8198859783BF
:10218000868389819A81918780870E9431222DB729
:102190003EB7265F3F4F0FB6F8943EBF0FBE2DBF30
:1021A000CE010F960E94830FA8960FB6F894DEBF5B
:1021B0000FBECDBFCF91DF910895DF93CF93CDB701
:1021C000DEB72E970FB6F894DEBF0FBECDBFABE3E0
:1021D000B0E0EBE3F0E080818B7F8C9380E090E0D7
:1021E000A0ECB0E48B879C87AD87BE876B857C8530
:1021F0008D859E8520E030E04AE753E40E949209F5
:10220000DC01CB018F839887A987BA876F81788596
:1022100089859A8520E030E040E85FE30E94EC0A7F
:1022200088232CF481E090E09E838D833FC06F81F2
:10223000788589859A8520E03FEF4FE757E40E9433
:102240008C0A18164CF56B857C858D859E8520E063
:1022500030E040E251E40E949209DC01CB01BC0174
:10226000CD010E944701DC01CB019E838D830FC00D
:1022700089E190E09C838B838B819C810197F1F7AE
:102280009C838B838D819E8101979E838D838D811D
:102290009E81009769F714C06F81788589859A853A
:1022A0000E944701DC01CB019E838D838D819E813D
:1022B0009A83898389819A810197F1F79A83898327
:1022C000ABE3B0E0EBE3F0E0808184608C932E968A
:1022D0000FB6F894DEBF0FBECDBFCF91DF9108954A
:1022E000DF93CF9300D000D0CDB7DEB79B838A8336
:1022F0006C8319828C81882F90E00896880F991F33
:10230000880F991F880F991F0E94030F19820EC012
:102310008981282F30E08A819B81FC01E20FF31F25
:1023200080810E943C0F89818F5F898389818830F9
:1023300078F30F900F900F900F90CF91DF91089549
:10234000DF93CF93CDB7DEB7A4E3B0E0E4E3F0E0F2
:102350008081806F8C93A4E3B0E0E4E3F0E08081BF
:10236000807F8C93E5E3F0E08FEF8083CF91DF9166
:102370000895DF93CF93CDB7DEB727970FB6F894C4
:10238000DEBF0FBECDBF1C821B8237C1A5E3B0E00C
:10239000E5E3F0E08081582F209188013091890198
:1023A00081E090E002C0880F991F2A95E2F7482F3C
:1023B00020918A0130918B0181E090E002C0880F6A
:1023C000991F2A95E2F7482B20918C0130918D01BD
:1023D00081E090E002C0880F991F2A95E2F7482B10
:1023E00020918E0130918F0181E090E002C0880F32
:1023F000991F2A95E2F7842B852B8C93A5E3B0E0F7
:10240000E5E3F0E08081482F8B819C81880F991F44
:10241000FC01E857FE4F2081318181E090E0022EDF
:1024200002C0880F991F0A94E2F7809584238C9349
:102430001A821982D7C0E3E3F0E08081282F30E0D0
:1024400089819A81880F991FFC01E057FE4F808196
:102450009181A90102C0559547958A95E2F7CA0175
:1024600081709070009709F0B8C0E3E3F0E08081DC
:10247000282F30E089819A81880F991FFC01E0574D
:10248000FE4F80819181A90102C0559547958A959B
:10249000E2F7CA0181709070009739F38B819C81BB
:1024A0009F838E834E815F8141305105C1F18E81C2
:1024B0009F818230910534F44E815F814115510531
:1024C00071F08BC08E819F818230910509F447C0E5
:1024D0004E815F814330510509F460C07EC089811F
:1024E0009A81009719F457E35D838FC089819A819F
:1024F0008130910519F484E38D8387C089819A81A5
:102500008230910519F491E39D837FC089819A817E
:102510008330910509F061C04FE34D8376C0898116
:102520009A81009719F458E35D836FC089819A817D
:102530008130910519F485E38D8367C089819A8183
:102540008230910519F492E39D835FC089819A815D
:102550008330910509F041C040E34D8356C0898125
:102560009A81009719F459E35D834FC089819A815C
:102570008130910519F486E38D8347C089819A8162
:102580008230910519F493E39D833FC089819A813C
:102590008330910511F54DE34D8337C089819A81D0
:1025A000009719F45FE25D8330C089819A818130A0
:1025B000910519F48AE28D8328C089819A8182303D
:1025C000910519F49DE29D8320C089819A81833011
:1025D000910519F44BE24D8318C089819A810196C7
:1025E0009A83898389819A81843091050CF423CF61
:1025F0008B819C8101969C838B838B819C81843011
:1026000091050CF4C3CE51E45D838D8127960FB6FE
:10261000F894DEBF0FBECDBFCF91DF910895DF9359
:10262000CF9300D0CDB7DEB79A838983A7E2B0E01D
:10263000E7E2F0E09081E981FA818081892B8C9337
:10264000A7E2B0E0E7E2F0E09081E981FA818181E0
:10265000892B8C93E981FA818381813081F4A6E210
:10266000B0E0E6E2F0E0808188608C93E981FA8155
:10267000858196819093AC018093AB0107C0A6E25F
:10268000B0E0E6E2F0E08081877F8C93E981FA8117
:102690008481803239F4A6E2B0E0E6E2F0E08081A5
:1026A00080628C93A6E2B0E0E6E2F0E09081E981FE
:1026B000FA818281892B8C93A6E2B0E0E6E2F0E019
:1026C000808180688C930F900F90CF91DF91089557
:1026D000DF93CF93CDB7DEB7E7E2F0E01082E6E21A
:1026E000F0E01082CF91DF910895DF93CF930F92A6
:1026F000CDB7DEB78983A7E2B0E0E7E2F0E0808102
:10270000807E8C93A7E2B0E0E7E2F0E090818981DF
:10271000892B8C93A6E2B0E0E6E2F0E08081806451
:102720008C93E6E2F0E08081882F90E080749070D6
:102730000097B9F3E4E2F0E0808191810F90CF91AE
:10274000DF9108951F920F920FB60F9211242F93CD
:102750003F934F935F936F937F938F939F93AF9329
:10276000BF93EF93FF93DF93CF93CDB7DEB7E091A5
:10277000AB01F091AC010995CF91DF91FF91EF9101
:10278000BF91AF919F918F917F916F915F914F9189
:102790003F912F910F900FBE0F901F901895DF93D0
:1027A000CF9300D000D00F92CDB7DEB789836A8374
:1027B0004B838A81282F30E03D832C838C819D813F
:1027C0008130910509F443C02C813D8122303105CF
:1027D0002CF48C819D81009771F0BCC02C813D81CF
:1027E0002230310509F45FC08C819D8183309105D1
:1027F00009F485C0AFC08B818130A1F4AAE3B0E0B9
:10280000EAE3F0E08081482F8981282F30E081E0E1
:1028100090E0022E02C0880F991F0A94E2F7842BE1
:102820008C9398C0AAE3B0E0EAE3F0E08081482FFF
:102830008981282F30E081E090E0022E02C0880FCD
:10284000991F0A94E2F7809584238C9383C08B812F
:102850008130A1F4A7E3B0E0E7E3F0E08081482F06
:102860008981282F30E081E090E0022E02C0880F9D
:10287000991F0A94E2F7842B8C936CC0A7E3B0E015
:10288000E7E3F0E08081482F8981282F30E081E064
:1028900090E0022E02C0880F991F0A94E2F78095FB
:1028A00084238C9357C08B818130A1F4A4E3B0E0E2
:1028B000E4E3F0E08081482F8981282F30E081E037
:1028C00090E0022E02C0880F991F0A94E2F7842B31
:1028D0008C9340C0A4E3B0E0E4E3F0E08081482FB3
:1028E0008981282F30E081E090E0022E02C0880F1D
:1028F000991F0A94E2F7809584238C932BC08B81D7
:102900008130A1F4A1E3B0E0E1E3F0E08081482F61
:102910008981282F30E081E090E0022E02C0880FEC
:10292000991F0A94E2F7842B8C9314C0A1E3B0E0C2
:10293000E1E3F0E08081482F8981282F30E081E0B9
:1029400090E0022E02C0880F991F0A94E2F780954A
:1029500084238C930F900F900F900F900F90CF9136
:10296000DF910895DF93CF9300D000D0CDB7DEB7CD
:1029700089836A838981282F30E03C832B838B8174
:102980009C8181309105D1F02B813C812230310531
:102990002CF48B819C81009761F01EC02B813C81BF
:1029A0002230310581F08B819C818330910581F04B
:1029B00013C0EAE3F0E08A8180830EC0E7E3F0E031
:1029C0008A81808309C0E4E3F0E08A81808304C0C7
:1029D000E1E3F0E08A8180830F900F900F900F90D9
:1029E000CF91DF910895DF93CF9300D000D00F9265
:1029F000CDB7DEB789836A834B838A81282F30E085
:102A00003D832C838C819D818130910509F443C0E5
:102A10002C813D81223031052CF48C819D810097E1
:102A200071F0BCC02C813D812230310509F45FC0BA
:102A30008C819D818330910509F485C0AFC08B8165
:102A40008130A1F4ABE3B0E0EBE3F0E08081482F0C
:102A50008981282F30E081E090E0022E02C0880FAB
:102A6000991F0A94E2F7842B8C9398C0ABE3B0E0F3
:102A7000EBE3F0E08081482F8981282F30E081E06E
:102A800090E0022E02C0880F991F0A94E2F7809509
:102A900084238C9383C08B818130A1F4A8E3B0E0C0
:102AA000E8E3F0E08081482F8981282F30E081E041
:102AB00090E0022E02C0880F991F0A94E2F7842B3F
:102AC0008C936CC0A8E3B0E0E8E3F0E08081482F8D
:102AD0008981282F30E081E090E0022E02C0880F2B
:102AE000991F0A94E2F7809584238C9357C08B81B9
:102AF0008130A1F4A5E3B0E0E5E3F0E08081482F68
:102B00008981282F30E081E090E0022E02C0880FFA
:102B1000991F0A94E2F7842B8C9340C0A5E3B0E0A0
:102B2000E5E3F0E08081482F8981282F30E081E0C3
:102B300090E0022E02C0880F991F0A94E2F7809558
:102B400084238C932BC08B818130A1F4A2E3B0E06D
:102B5000E2E3F0E08081482F8981282F30E081E096
:102B600090E0022E02C0880F991F0A94E2F7842B8E
:102B70008C9314C0A2E3B0E0E2E3F0E08081482F40
:102B80008981282F30E081E090E0022E02C0880F7A
:102B9000991F0A94E2F7809584238C930F900F90ED
:102BA0000F900F900F90CF91DF910895DF93CF9307
:102BB00000D000D0CDB7DEB789836A838981282F02
:102BC00030E03C832B838B819C8181309105D1F057
:102BD0002B813C81223031052CF48B819C81009724
:102BE00061F01EC02B813C812230310581F08B8148
:102BF0009C818330910581F013C0EBE3F0E08A8182
:102C000080830EC0E8E3F0E08A81808309C0E5E3B9
:102C1000F0E08A81808304C0E2E3F0E08A8180836F
:102C20000F900F900F900F90CF91DF910895DF9349
:102C3000CF9300D000D00F92CDB7DEB78A836B83DD
:102C40008B81282F30E03D832C838C819D818130C6
:102C5000910539F12C813D81223031052CF48C8194
:102C60009D81009761F052C02C813D812230310559
:102C700051F18C819D8183309105B9F147C0E9E321
:102C8000F0E08081482F8A81282F30E081E090E0B9
:102C9000022E02C0880F991F0A94E2F784238983C9
:102CA00035C0E6E3F0E08081482F8A81282F30E0AC
:102CB00081E090E0022E02C0880F991F0A94E2F78B
:102CC0008423898323C0E3E3F0E08081482F8A8155
:102CD000282F30E081E090E0022E02C0880F991F7B
:102CE0000A94E2F78423898311C0E0E3F0E0808155
:102CF000482F8A81282F30E081E090E0022E02C028
:102D0000880F991F0A94E2F78423898389810F90A1
:102D10000F900F900F900F90CF91DF910895DF9358
:102D2000CF9300D000D0CDB7DEB78A838A81282F19
:102D300030E03C832B838B819C8181309105D1F0E5
:102D40002B813C81223031052CF48B819C810097B2
:102D500061F01EC02B813C812230310581F08B81D6
:102D60009C818330910581F013C0E9E3F0E080811C
:102D700089830EC0E6E3F0E08081898309C0E3E344
:102D8000F0E08081898304C0E0E3F0E08081898302
:102D900089810F900F900F900F90CF91DF91089540
:102DA000DF93CF9300D000D0CDB7DEB789836A839D
:102DB0008A81282F30E03C832B838B819C8181305A
:102DC000910549F12B813C81223031052CF48B8116
:102DD0009C81009761F05AC02B813C8122303105E3
:102DE00071F18B819C8183309105E9F14FC0ABE398
:102DF000B0E0EBE3F0E08081482F8981282F30E0BC
:102E000081E090E0022E02C0880F991F0A94E2F739
:102E100084278C933BC0A8E3B0E0E8E3F0E0808136
:102E2000482F8981282F30E081E090E0022E02C0F7
:102E3000880F991F0A94E2F784278C9327C0A5E393
:102E4000B0E0E5E3F0E08081482F8981282F30E071
:102E500081E090E0022E02C0880F991F0A94E2F7E9
:102E600084278C9313C0A2E3B0E0E2E3F0E080811A
:102E7000482F8981282F30E081E090E0022E02C0A7
:102E8000880F991F0A94E2F784278C930F900F9074
:102E90000F900F90CF91DF910895DF93CF93CDB72F
:102EA000DEB72A970FB6F894DEBF0FBECDBF898379
:102EB0006A838981282F30E03A87298789859A8516
:102EC0008630910569F029853A852730310509F466
:102ED00062C089859A858530910509F4B7C0D3C051
:102EE0008A81282F30E038872F838F819885813021
:102EF000910599F12F813885223031052CF48F818D
:102F000098850097C9F1BFC02F81388522303105DF
:102F100031F08F8198858330910581F0B4C0A5E5AB
:102F2000B0E0E5E5F0E080818E7F8C93A5E5B0E030
:102F3000E5E5F0E080818D7F8C93A5C0A5E5B0E04C
:102F4000E5E5F0E0808181608C93A5E5B0E0E5E502
:102F5000F0E080818D7F8C9396C0A5E5B0E0E5E53B
:102F6000F0E080818E7F8C93A5E5B0E0E5E5F0E0B0
:102F7000808182608C9387C0A5E5B0E0E5E5F0E054
:102F8000808181608C93A5E5B0E0E5E5F0E080818B
:102F900082608C9378C08A81282F30E03E832D8315
:102FA0008D819E818130910599F12D813E81223064
:102FB00031052CF48D819E810097C9F164C02D816B
:102FC0003E812230310531F08D819E818330910523
:102FD00081F059C0A5E5B0E0E5E5F0E080818B7FA8
:102FE0008C93A5E5B0E0E5E5F0E08081877F8C93E8
:102FF0004AC0A5E5B0E0E5E5F0E0808184608C930F
:10300000A5E5B0E0E5E5F0E08081877F8C933BC0EB
:10301000A5E5B0E0E5E5F0E080818B7F8C93A5E548
:10302000B0E0E5E5F0E0808188608C932CC0A5E5F8
:10303000B0E0E5E5F0E0808184608C93A5E5B0E048
:10304000E5E5F0E0808188608C931DC08A81282F9F
:1030500030E03C832B838B819C81009769F02B812E
:103060003C812130310579F4A4E5B0E0E4E5F0E0FD
:1030700080818F7B8C9307C0A4E5B0E0E4E5F0E0AD
:10308000808180648C93AFE5B0E0EFE5F0E0808173
:1030900080688C93ABE5B0E0EBE5F0E08081482FF1
:1030A0008981282F30E081E090E0022E02C0880F55
:1030B000991F0A94E2F7842B8C932A960FB6F89402
:1030C000DEBF0FBECDBFCF91DF910895DF93CF93C9
:1030D0000F92CDB7DEB78983AFE5B0E0EFE5F0E062
:1030E00080818F778C93ABE5B0E0EBE5F0E08081F9
:1030F000482F8981282F30E081E090E0022E02C025
:10310000880F991F0A94E2F7809584238C930F907F
:10311000CF91DF910895DF93CF9300D00F92CDB779
:10312000DEB789837B836A838981882F90E0880F4B
:10313000991FFC01EE55FE4F8A819B81918380830C
:103140000F900F900F90CF91DF9108951F920F92E3
:103150000FB60F9211242F933F934F935F936F936A
:103160007F938F939F93AF93BF93EF93FF93DF93DF
:10317000CF93CDB7DEB7E091A201F091A3010995FD
:10318000CF91DF91FF91EF91BF91AF919F918F917F
:103190007F916F915F914F913F912F910F900FBE53
:1031A0000F901F9018951F920F920FB60F92112437
:1031B0002F933F934F935F936F937F938F939F933F
:1031C000AF93BF93EF93FF93DF93CF93CDB7DEB76A
:1031D000E091A401F091A5010995CF91DF91FF91B4
:1031E000EF91BF91AF919F918F917F916F915F917F
:1031F0004F913F912F910F900FBE0F901F901895F8
:103200001F920F920FB60F9211242F933F934F935B
:103210005F936F937F938F939F93AF93BF93EF933E
:10322000FF93DF93CF93CDB7DEB7E091A601F09186
:10323000A7010995CF91DF91FF91EF91BF91AF91D8
:103240009F918F917F916F915F914F913F912F91BE
:103250000F900FBE0F901F901895DF93CF93CDB7AF
:10326000DEB7AFE5B0E0EFE5F0E0808180688C93F9
:10327000CF91DF910895DF93CF93CDB7DEB7AFE560
:10328000B0E0EFE5F0E080818F778C93CF91DF9114
:1032900008950F931F93DF93CF9300D000D0CDB745
:1032A000DEB769837A838B839C8300E210E080E43D
:1032B00092E4AFE0B0E029813A814B815C81BC01AE
:1032C000CD010E94B921DA01C9014097A109B109D4
:1032D000B695A79597958795F8018083E1E2F0E090
:1032E00010820F900F900F900F90CF91DF911F9150
:1032F0000F910895DF93CF93CDB7DEB7E6E5F0E009
:1033000084EA8083E6E5F0E080818823DCF7E1E26F
:10331000F0E080818830D9F7CF91DF910895DF9375
:10332000CF930F92CDB7DEB78983E3E2F0E08981D6
:103330008083E6E5F0E084E88083E6E5F0E08081E4
:103340008823DCF70F90CF91DF910895DF93CF931F
:10335000CDB7DEB7A6E5B0E0E6E5F0E080818564B4
:103360008C93E6E5F0E080818823DCF7E3E2F0E08F
:103370008081CF91DF910895DF93CF93CDB7DEB7F2
:10338000E6E5F0E084E98083CF91DF910895DF9353
:10339000CF930F92CDB7DEB78983E2E2F0E0898167
:1033A00080830F90CF91DF910895DF93CF930F9299
:1033B000CDB7DEB78983A6E5B0E0E6E5F0E0808131
:1033C00085648C93E6E5F0E080818823DCF7E1E218
:1033D000F0E080818036D9F7A6E5B0E0E6E5F0E0E0
:1033E000808185648C93E6E5F0E080818823DCF7BA
:1033F000E1E2F0E080818038D9F7E3E2F0E080811B
:103400000F90CF91DF910895DF93CF93CDB7DEB7C3
:1034100086E061E040E00E94CF1385E061E041E09A
:103420000E94CF1387E061E041E00E94CF1384E067
:1034300061E041E00E94CF13EDE2F0E081E580839E
:10344000CF91DF910895DF93CF930F92CDB7DEB781
:103450008983EFE2F0E089818083EEE2F0E0808111
:103460008823DCF7EFE2F0E080810F90CF91DF91CD
:103470000895DF93CF9300D0CDB7DEB79A838983C9
:1034800089819A81009791F1A3E5B0E0E3E5F0E04E
:103490009081E981FA818081892B8C93A3E5B0E04A
:1034A000E3E5F0E09081E981FA818181892B8C93B9
:1034B000A9E5B0E0E9E5F0E09081E981FA81828157
:1034C000892B8C93A9E5B0E0E9E5F0E09081E981F2
:1034D000FA818381892B8C93A3E5B0E0E3E5F0E0EA
:1034E0009081E981FA818481892B8C930F900F90D0
:1034F000CF91DF910895DF93CF93CDB7DEB7E3E5AA
:10350000F0E01082CF91DF910895DF93CF93CDB794
:10351000DEB7ECE5F0E08081CF91DF910895DF9395
:10352000CF930F92CDB7DEB78983ECE5F0E08981C8
:1035300080830F90CF91DF910895DF93CF93CDB724
:10354000DEB7E2E5F0E08081CF91DF910895DF936F
:10355000CF930F92CDB7DEB78983E2E5F0E08981A2
:1035600080830F90CF91DF910895DF93CF93CDB7F4
:10357000DEB78091A801CF91DF910895DF93CF93BB
:103580000F92CDB7DEB7898389818093A8010F9010
:10359000CF91DF910895DF93CF9300D0CDB7DEB701
:1035A0009A83898389819A819093AE018093AD013A
:1035B0000F900F90CF91DF910895DF93CF9300D0BC
:1035C000CDB7DEB79A83898389819A819093B001C0
:1035D0008093AF010F900F90CF91DF9108951F92CC
:1035E0000F920FB60F9211242F933F934F935F9337
:1035F0006F937F938F939F93AF93BF93EF93FF93BB
:10360000DF93CF93CDB7DEB7E091AD01F091AE017E
:103610000995CF91DF91FF91EF91BF91AF919F916C
:103620008F917F916F915F914F913F912F910F906B
:103630000FBE0F901F9018951F920F920FB60F920A
:1036400011242F933F934F935F936F937F938F93A7
:103650009F93AF93BF93EF93FF93DF93CF93CDB738
:10366000DEB7E091AF01F091B00109958091A8011A
:103670008F5F8093A801CF91DF91FF91EF91BF9170
:10368000AF919F918F917F916F915F914F913F91FA
:103690002F910F900FBE0F901F901895DF93CF932F
:1036A00000D0CDB7DEB79A8389830F900F90CF916A
:1036B000DF910895DF93CF93CDB7DEB7CF91DF9140
:1036C0000895DF93CF930F92CDB7DEB70F90CF91D0
:1036D000DF910895DF93CF930F92CDB7DEB7898343
:1036E0000F90CF91DF910895DF93CF930F92CDB7D5
:1036F000DEB70F90CF91DF910895DF93CF930F92B4
:10370000CDB7DEB789830F90CF91DF910895DF9316
:10371000CF9300D0CDB7DEB79A8389830F900F90F7
:10372000CF91DF910895DF93CF9300D0CDB7DEB76F
:103730009A8389830F900F90CF91DF910895DF9343
:10374000CF93CDB7DEB7E9E2F0E083E38083ABE26D
:10375000B0E0EBE2F0E080818D7F8C93A0E4B0E0FC
:10376000E0E4F0E080818F7B8C93A0E4B0E0E0E4C3
:10377000F0E080818F7E8C93A0E4B0E0E0E4F0E0A4
:1037800080818F7D8C93A0E4B0E0E0E4F0E0808164
:10379000877F8C93A0E4B0E0E0E4F0E08081846077
:1037A0008C93A0E4B0E0E0E4F0E0808182608C9350
:1037B000AAE2B0E0EAE2F0E080818B7F8C93AAE29B
:1037C000B0E0EAE2F0E0808180618C93AAE2B0E0B0
:1037D000EAE2F0E0808188608C93CF91DF910895D8
:1037E000DF93CF930F92CDB7DEB78983EBE2F0E0A2
:1037F0008081882F90E0807290700097B9F3ECE29E
:10380000F0E0898180830F90CF91DF910895DF935D
:10381000CF93CDB7DEB7EBE2F0E080818823DCF711
:10382000ECE2F0E08081CF91DF910895DF93CF93B8
:10383000CDB7DEB729970FB6F894DEBF0FBECDBF68
:103840009987888700D000D000D0EDB7FEB73196B9
:10385000CE0101969183808380E790E093838283F9
:1038600088859985958384830E9431228DB79EB780
:1038700006960FB6F8949EBF0FBE8DBFCE0101967F
:103880000E94541C29960FB6F894DEBF0FBECDBF20
:10389000CF91DF910895DF93CF93CDB7DEB780E06E
:1038A00090E0CF91DF910895DF93CF9300D00F92F6
:1038B000CDB7DEB79B838A8319820EC08981282FFA
:1038C00030E08A819B81FC01E20FF31F80810E941E
:1038D000F01B89818F5F89838981282F30E08A815D
:1038E0009B81FC01E20FF31F90818981891730F3DE
:1038F0008DE00E94F01B0F900F900F90CF91DF9101
:1039000008950F931F93DF93CF9300D00F92CDB7FD
:10391000DEB79B838A8319828981282F30E08A81D0
:103920009B818C01020F131F0E94071CF8018083EA
:103930000FC089818F5F89838981282F30E08A8138
:103940009B818C01020F131F0E94071CF8018083CA
:103950008981282F30E08A819B81FC01E20FF31FCF
:1039600080818D3031F78981282F30E08A819B81D9
:10397000FC01E20FF31F10820F900F900F90CF9178
:10398000DF911F910F910895DF93CF9300D00F9295
:10399000CDB7DEB79A838983EBE2F0E0808188239C
:1039A0004CF4ECE2F0E08081E981FA81808381E0EF
:1039B0008B8301C01B828B810F900F900F90CF9152
:1039C000DF910895DF93CF930F92CDB7DEB7898350
:1039D000ECE2F0E0898180830F90CF91DF91089530
:1039E000DF93CF93CDB7DEB7ECE2F0E08081CF91EB
:1039F000DF910895DF93CF93CDB7DEB7AAE2B0E0B1
:103A0000EAE2F0E0808180648C93CF91DF910895A9
:103A1000DF93CF93CDB7DEB7AAE2B0E0EAE2F0E001
:103A200080818F7B8C93CF91DF910895DF93CF932B
:103A3000CDB7DEB7AAE2B0E0EAE2F0E080818068CC
:103A40008C93CF91DF910895DF93CF93CDB7DEB7FD
:103A5000AAE2B0E0EAE2F0E080818F778C93CF9128
:103A6000DF910895DF93CF9300D0CDB7DEB79A836F
:103A70008983809198019091990181309105A1F4F9
:103A80000E94FA1CE981FA8180810E94E21C8981EE
:103A90009A819093AA018093A901109299011092A2
:103AA000980181E40E943C0F0F900F90CF91DF911D
:103AB00008951F920F920FB60F9211242F933F93E8
:103AC0004F935F936F937F938F939F93AF93BF9326
:103AD000EF93FF93DF93CF93CDB7DEB72091A9018A
:103AE0003091AA0180919A01882F90E0F901E80FA6
:103AF000F91F8081882311F12091A9013091AA0139
:103B000080919A01882F90E0F901E80FF91F8081D8
:103B10000E94E21C80919A018F5F80939A0120910C
:103B2000A9013091AA0180919A01882F90E0F901B2
:103B3000E80FF91F80810E943C0F0EC081E0809346
:103B40009A0181E090E090939901809398010E94FE
:103B5000081D83E40E943C0FCF91DF91FF91EF910C
:103B6000BF91AF919F918F917F916F915F914F9195
:103B70003F912F910F900FBE0F901F901895DF93DC
:103B8000CF930F92CDB7DEB78983E1E4F0E089816E
:103B90008083A1E4B0E0E1E4F0E0808188608C9370
:103BA0000F90CF91DF910895DF93CF93CDB7DEB71C
:103BB000E1E4F0E088E18083E1E4F0E01082CF917D
:103BC000DF910895DF93CF93CDB7DEB7CF91DF912B
:103BD00008952F923F924F925F926F927F928F92B1
:103BE0009F92AF92BF92CF92DF92EF92FF920F938C
:103BF0001F93DF93CF93CDB7DEB7C856D0400FB633
:103C0000F894DEBF0FBECDBF0E942D190E94E90DB2
:103C1000CE010F969F8B8E8BEBE9F1E0F98FE88F49
:103C2000F7E0FA8FE88DF98D0080888D998D0196E7
:103C3000998F888FEE89FF8900828E899F890196EE
:103C40009F8B8E8B9A8D91509A8FEA8DEE2351F730
:103C5000CE010F960E940F1380E060E00E94C10F1A
:103C600083E790E00E94830F83E00E9475139E8398
:103C70008D838D819E819C0140E050E060E070E08A
:103C800080E090E0A22EB32EC42ED52EE62EF72E85
:103C9000082F192F2A2D3B2D4C2D5D2D6E2D7F2D9C
:103CA000802F912F02E00E94C8002B8F3C8F4D8FF8
:103CB0005E8F6F8F78A389A39AA32B8D3C8D4D8D3A
:103CC0005E8D6F8D78A189A19AA102E00E94C80043
:103CD0002BA33CA34DA35EA36FA378A789A79AA7A4
:103CE000FB8D8BA1F80FFBA791E09BABEBA5FB8DA8
:103CF000EF1708F01BAA8C8D9CA1890F8CA7E1E01F
:103D0000ECABFCA58C8DF81708F01CAA9BA9ECA5C0
:103D10009E0F9DABF1E0FEAB8DA99CA5891708F025
:103D20001EAAECA9FEA9EF2BECAB8DA98CA79D8D4B
:103D3000EDA19E0F9DA7F1E0FFAB8DA59D8D89178D
:103D400008F01FAAECA9FDA5EF0FE8AF81E089AF4D
:103D500098ADEDA59E1708F019AEFFA989ADF82B17
:103D6000FFAB98AD9DA7EE8DFEA1EF0FEEA781E012
:103D70008AAF9EA5EE8D9E1708F01AAEFFA98EA5FC
:103D8000F80FFBAF91E09CAFEBADFEA5EF1708F08D
:103D90001CAE8AAD9CAD892B8AAFEBADEEA7FF8D33
:103DA0008FA1F80FFFA791E09DAFEFA5FF8DEF1753
:103DB00008F01DAE8AAD9FA5890F8EAFE1E0EFAF91
:103DC000FEAD8FA5F81708F01FAE9DADEFAD9E2B91
:103DD0009DAFFEADFFA788A198A5890F88ABE1E054
:103DE0002196EFAF2197F8A988A1F81718F021962E
:103DF0001FAE21979DADE8A99E0F22969FAF2297F7
:103E0000F1E02396FFAF239722968FAD229798A9D2
:103E1000891718F023961FAE23972196EFAD2197AF
:103E20002396FFAD2397EF2B2196EFAF2197229694
:103E30008FAD229788AB99A1E9A59E0F99ABF1E0D0
:103E40002496FFAF249789A999A1891718F0249681
:103E50001FAE24972196EFAD2197F9A9EF0F259674
:103E6000EFAF259781E026968FAF269725969FADD9
:103E70002597E9A99E1718F026961FAE2697249637
:103E8000FFAD249726968FAD2697F82B2496FFAF8B
:103E9000249725969FAD259799ABEAA1FAA5EF0F38
:103EA000EAAB24968FAD24979AA9890F8AABEBA52C
:103EB000EB8FFCA5FC8F8DA58D8F9EA59E8FEFA50A
:103EC000EF8FF8A9F8A389A989A39AA99AA32B8DA2
:103ED0003C8D4D8D5E8D6F8D78A189A19AA102E0F8
:103EE0000E94C80027962FAF279728963FAF2897A4
:103EF00029964FAF29972A965FAF2A972B966FAFD7
:103F00002B972C967FAF2C972D968FAF2D972E96B3
:103F10009FAF2E97EB8D2796FFAD2797EF0F2F962C
:103F2000EFAF2F9781E067968FAF67972F969FAD82
:103F30002F97EB8D9E1718F067961FAE6797FC8D35
:103F400028968FAD2897F80F6096FFAF609791E0A5
:103F500068969FAF68976096EFAD6097FC8DEF17FE
:103F600018F068961FAE689767968FAD6797609652
:103F70009FAD6097890F69968FAF6997E1E06A9668
:103F8000EFAF6A976996FFAD699760968FAD6097BE
:103F9000F81718F06A961FAE6A9768969FAD6897F3
:103FA0006A96EFAD6A979E2B68969FAF6897699661
:103FB000FFAD69976096FFAF60978D8D29969FAD95
:103FC0002997890F61968FAF6197E1E06B96EFAF0C
:103FD0006B976196FFAD61978D8DF81718F06B9612
:103FE0001FAE6B9768969FAD68976196EFAD61972E
:103FF0009E0F6C969FAF6C97F1E06D96FFAF6D973B
:104000006C968FAD6C9761969FAD6197891718F08C
:104010006D961FAE6D976B96EFAD6B976D96FFAD7E
:104020006D97EF2B6B96EFAF6B976C968FAD6C9790
:1040300061968FAF61979E8D2A96EFAD2A979E0F5E
:1040400062969FAF6297F1E06E96FFAF6E976296B1
:104050008FAD62979E8D891718F06E961FAE6E9782
:104060006B96EFAD6B976296FFAD6297EF0F6F9611
:10407000EFAF6F9781E0A0968FAFA0976F969FAD3F
:104080006F976296EFAD62979E1718F0A0961FAEDD
:10409000A0976E96FFAD6E97A0968FADA097F82B68
:1040A0006E96FFAF6E976F969FAD6F9762969FAFBC
:1040B0006297EF8D2B96FFAD2B97EF0F6396EFAFC7
:1040C000639781E0A1968FAFA19763969FAD6397A9
:1040D000EF8D9E1718F0A1961FAEA1976E96FFADBB
:1040E0006E9763968FAD6397F80FA296FFAFA29776
:1040F00091E0A3969FAFA397A296EFADA297639688
:10410000FFAD6397EF1718F0A3961FAEA397A19684
:104110008FADA197A3969FADA397892BA1968FAF43
:10412000A197A296EFADA2976396EFAF6397F8A120
:104130002C968FAD2C97F80F6496FFAF649791E0A3
:10414000A4969FAFA4976496EFAD6497F8A1EF177C
:1041500018F0A4961FAEA497A1968FADA197649670
:104160009FAD6497890FA5968FAFA597E1E0A696BE
:10417000EFAFA697A596FFADA59764968FAD649710
:10418000F81718F0A6961FAEA697A4969FADA49711
:10419000A696EFADA6979E2BA4969FAFA497A59643
:1041A000FFADA5976496FFAF649789A12D969FAD4B
:1041B0002D97890F65968FAF6597E1E0A796EFAFD2
:1041C000A7976596FFAD659789A1F81718F0A79690
:1041D0001FAEA797A4969FADA4976596EFAD659780
:1041E0009E0FA8969FAFA897F1E0A996FFAFA99759
:1041F000A8968FADA89765969FAD6597891718F01B
:10420000A9961FAEA997A796EFADA797A996FFAD60
:10421000A997EF2BA796EFAFA797A8968FADA89772
:1042200065968FAF65979AA12E96EFAD2E979E0F4C
:1042300066969FAF6697A7968FADA7976696FFADD8
:1042400066978F0F66968FAF66972F96AFAC2F97B6
:104250006096BFAC60976196CFAC61976296DFAC19
:1042600062976396EFAC63976496FFAC649765962C
:104270000FAD659766961FAD66972A2D3B2D4C2D89
:104280005D2D6E2D7F2D802F912F0AE00E94490019
:10429000A22EB32EC42ED52EE62EF72E082F192FC0
:1042A000AF82B886C986DA86EB86FC860D871E87C4
:1042B00080E06DE00E94C10F8F8198850E94EC0F15
:1042C0002F81388549855A856B857C858D859E85AE
:1042D00004E00E94C800222E332E442E552E662E56
:1042E000772E882E992EA22CB32CC42CD52CE62CFC
:1042F000F72C082D192D2A2D3B2D4C2D5D2D6E2DC3
:104300007F2D802F912F0F2EF4E6AF2EF02DBB24A2
:10431000CC24DD24EE24FF2400E010E00E94730191
:10432000A22EB32EC42ED52EE62EF72E082F192F2F
:104330002A2D3B2D4C2D5D2D6E2D7F2D802F912F05
:104340003C832B8381E060E00E94C10F1A821982B6
:1043500008C08FEF0E943C0F89819A8101969A8351
:10436000898329813A818B819C812817390788F3B9
:104370007BCCA1E21A2EAA1BBB1BFD010DC0AA1FFC
:10438000BB1FEE1FFF1FA217B307E407F50720F0BE
:10439000A21BB30BE40BF50B661F771F881F991F39
:1043A0001A9469F760957095809590959B01AC0182
:1043B000BD01CF010895629FD001739FF001829FDC
:1043C000E00DF11D649FE00DF11D929FF00D839FA4
:1043D000F00D749FF00D659FF00D9927729FB00D41
:1043E000E11DF91F639FB00DE11DF91FBD01CF0154
:1043F000112408952F923F924F925F926F927F9275
:104400008F929F92AF92BF92CF92DF92EF92FF92E4
:104410000F931F93CF93DF93CDB7DEB7CA1BDB0B90
:104420000FB6F894DEBF0FBECDBF09942A88398835
:1044300048885F846E847D848C849B84AA84B9843C
:10444000C884DF80EE80FD800C811B81AA81B98148
:10445000CE0FD11D0FB6F894DEBF0FBECDBFED015C
:104460000895AEE0B0E0E7E3F2E20C9408220D8993
:104470001E8986E08C831A8309838FEF9FE79E83D2
:104480008D839E01275E3F4FCE0101966F89788D07
:10449000A9010E9455222F813885020F131FF801B0
:1044A00010822E96E4E00C942422ABE0B0E0EBE521
:1044B000F2E20C94FA213C012B015A01FC01178213
:1044C0001682838181FD03C06FEF7FEFC6C19AE042
:1044D000892E1E010894211C311CF3012381F20155
:1044E00023FD859123FF81912F01882309F4B2C117
:1044F000853239F423FD859123FF81912F01853287
:1045000029F490E0B3010E944824E7CF982FFF24BC
:10451000EE249924FFE1FF15D0F09B3269F09C3224
:1045200028F4903259F0933291F40EC09D3249F044
:10453000903369F441E024C052E0F52A84E0F82A7F
:1045400028C098E0F92A25C0E0E1FE2A22C0F7FC45
:1045500029C0892F80538A3070F4F6FE05C0989CDC
:10456000902C1124980E15C0E89CE02C1124E80E24
:10457000F0E2FF2A0EC09E3229F4F6FC6BC140E443
:10458000F42A07C09C3619F450E8F52A02C0983680
:1045900049F4F20123FD959123FF91912F01992375
:1045A00009F0B8CF892F8554833018F080528330BA
:1045B00038F444E050E0A40EB51E5FE359830FC009
:1045C000933631F0933779F0933509F056C020C017
:1045D000F5018081898342E050E0A40EB51E61019F
:1045E00001E010E012C0F501C080D180F6FC03C0EC
:1045F0006FEF7FEF02C0692D70E042E050E0A40E43
:10460000B51EC6010E943D248C015FE7F52214C04F
:10461000F501C080D180F6FC03C06FEF7FEF02C0D0
:10462000692D70E042E050E0A40EB51EC6010E9464
:1046300032248C0150E8F52AF3FE07C01AC080E24C
:1046400090E0B3010E944824EA948E2D90E0081770
:104650001907A8F30EC0F601F7FC8591F7FE8191CA
:104660006F0190E0B3010E944824E110EA940150E8
:1046700010400115110579F7EAC0943611F099360A
:1046800069F5F7FE08C0F50120813181428153812F
:1046900084E090E00AC0F501808191819C0144276B
:1046A00037FD4095542F82E090E0A80EB91E9FE69A
:1046B000F92257FF09C050954095309521953F4FFD
:1046C0004F4F5F4FE0E8FE2ACA01B901A1012AE07D
:1046D00030E00E947424D82ED21840C0953729F4B7
:1046E0001F2D1F7E2AE030E01DC01F2D197F9F3631
:1046F00061F0903720F4983509F0ACC00FC09037C6
:1047000039F0983709F0A6C004C028E030E00AC0AC
:10471000106114FD146020E130E004C014FD166047
:1047200020E132E017FF08C0F501608171818281CC
:10473000938144E050E008C0F50180819181BC0183
:1047400080E090E042E050E0A40EB51EA1010E947E
:104750007424D82ED2188FE7F82EF122F6FE0BC063
:104760005EEFF522D91438F4F4FE07C0F2FC05C060
:104770008FEEF82202C01D2D01C0192DF4FE0DC0D0
:10478000FE01ED0DF11D8081803319F499EEF922BF
:1047900008C01F5FF2FE05C003C08F2D867809F0A8
:1047A0001F5F0F2DF3FC14C0F0FE0FC01E1510F09C
:1047B0009D2C0BC09D2C9E0C911A1E2D06C080E2D4
:1047C00090E0B3010E9448241F5F1E15C0F304C08F
:1047D0001E1510F4E11A01C0EE2404FF0FC080E39F
:1047E00090E0B3010E94482402FF1DC001FD03C0F8
:1047F00088E790E00EC088E590E00BC0802F8678B7
:1048000091F001FF02C08BE201C080E2F7FC8DE273
:1048100090E0B3010E94482406C080E390E0B30119
:104820000E9448249A94D914C0F3DA94F101ED0D52
:10483000F11D808190E0B3010E944824DD20A9F79A
:1048400006C080E290E0B3010E944824EA94EE2082
:10485000C1F743CEF30166817781CB012B96E2E16C
:104860000C941622FC010590615070400110D8F79D
:10487000809590958E0F9F1F0895FC0161507040A8
:1048800001900110D8F7809590958E0F9F1F089585
:104890000F931F93CF93DF938C01EB018B8181FFEB
:1048A0001BC082FF0DC02E813F818C819D81281706
:1048B000390764F4E881F9810193F983E88306C03C
:1048C000E885F985802F0995892B31F48E819F81A8
:1048D00001969F838E8302C00FEF1FEFC801DF9107
:1048E000CF911F910F910895FA01AA27283051F115
:1048F000203181F1E8946F936E7F6E5F7F4F8F4F11
:104900009F4FAF4FB1E03ED0B4E03CD0670F781F6F
:10491000891F9A1FA11D680F791F8A1F911DA11D54
:104920006A0F711D811D911DA11D20D009F468948D
:104930003F912AE0269F11243019305D3193DEF635
:10494000CF010895462F4770405D4193B3E00FD0EB
:10495000C9F7F6CF462F4F70405D4A3318F0495DD6
:1049600031FD4052419302D0A9F7EACFB4E0A695B9
:104970009795879577956795BA95C9F700976105DB
:10498000710508959B01AC010A2E06945795479531
:1049900037952795BA95C9F7620F731F841F951F26
:0849A000A01D0895F894FFCF5B
:1049A800256400002D00257325642E25303464000D
:1049B80025640050657263656E742069733A20003F
:1049C80000000000000000000001020203030303CE
:1049D8000404040404040404050505050505050587
:1049E8000505050505050505060606060606060667
:1049F800060606060606060606060606060606064F
:104A08000606060606060606070707070707070736
:104A1800070707070707070707070707070707071E
:104A2800070707070707070707070707070707070E
:104A380007070707070707070707070707070707FE
:104A480007070707070707070808080808080808E6
:104A580008080808080808080808080808080808CE
:104A680008080808080808080808080808080808BE
:104A780008080808080808080808080808080808AE
:104A8800080808080808080808080808080808089E
:104A9800080808080808080808080808080808088E
:104AA800080808080808080808080808080808087E
:104AB800080808080808080808080808080808086E
:104AC8000808080808080808040005000600070088
:104AD8000000010002000300010001400006000080
:024AE8000000CC
:00000001FF
