:100000000C942A000C9434000C9434000C943400AA
:100010000C9434000C9434000C9434000C94340090
:100020000C9434000C9434000C9434000C94340080
:100030000C9434000C9434000C9434000C94340070
:100040000C9434000C9434000C9434000C94340060
:100050000C94340011241FBECFE5D4E0DEBFCDBF29
:100060000E9464000C94B7000C940000DF93CF93BF
:1000700000D000D000D0CDB7DEB79E838D831C8228
:100080001B8212C01A82198205C089819A81019649
:100090009A83898389819A818F3F9105B0F38B81FF
:1000A0009C8101969C838B832D813E818B819C81D9
:1000B0008217930738F326960FB6F894DEBF0FBE6B
:1000C000CDBFCF91DF910895DF93CF930F92CDB73E
:1000D000DEB7A1E3B0E0E1E3F0E0808180628C93E1
:1000E000A1E3B0E0E1E3F0E0808180648C93A1E3E0
:1000F000B0E0E1E3F0E0808180688C93A1E3B0E0C0
:10010000E1E3F0E080818E7F8C93A2E3B0E0E2E354
:10011000F0E080818E7F8C9385E08983E0E3F0E0DE
:100120008081882F90E0817090708823B9F3A2E3DA
:10013000B0E0E2E3F0E08081482F8981282F30E0B1
:1001400081E090E0022E02C0880F991F0A94E2F726
:10015000842B8C9389818F5F8983E0E3F0E0808139
:10016000882F90E0817090708823B9F7D7CFF894EA
:02017000FFCFBF
:00000001FF
