:020000040800F2
:100000000010002089010008D9010008D90100086A
:1000100000000000000000000000000000000000E0
:10002000000000000000000000000000D9010008EE
:100030000000000000000000D9010008D9010008FC
:10004000D9010008D9010008D9010008D901000828
:10005000D9010008D9010008D9010008D901000818
:1000600000000000D9010008D9010008D9010008EA
:10007000D9010008D9010008D901000800000000DA
:10008000D9010008D901000800000000D9010008CA
:10009000D9010008D9010008D9010008D9010008D8
:1000A000D9010008D9010008D9010008D9010008C8
:1000B000D9010008D901000800000000D90100089A
:1000C00010B5064C2378002B07D1054B002B02D02E
:1000D000044800E000BF0123237010BD0800002089
:1000E0000000000024020008044B10B5002B03D0D0
:1000F0000349044800E000BF10BDC04600000000F6
:100100000C0000202402000880B582B000AF184B1C
:100110001A68174B04210A431A60164B1B681A68A9
:1001200015490A40802189030A431A60134B1B6852
:100130001A88802189010A431A8000237B6002E02B
:100140007B6801337B607B680D4A9342F8DD0B4B83
:100150001B681A880B490A401A8000233B6002E0A2
:100160003B6801333B603B68054A9342F8DDDDE7BD
:100170001810024004000020FFFF0FFF00000020C5
:1001800087130000FFDFFFFF0D48854600E000BF3A
:100190000C480D490D4A002302E0D458C4500433E2
:1001A000C4188C42F9D30A4A0A4C002301E01360B8
:1001B0000432A242FBD300F011F8FFF7A5FFFEE7DF
:1001C0000010002000000020080000204402000869
:1001D0000800002024000020FEE7000070B5002683
:1001E0000C4D0D4C641BA410A64209D1002600F052
:1001F00019F80A4D0A4C641BA410A64205D170BD23
:10020000B300EB5898470136EEE7B300EB58984738
:100210000136F2E73C0200083C0200083C020008FC
:1002200040020008F8B5C046F8BC08BC9E467047BE
:0C023000F8B5C046F8BC08BC9E467047FC
:04023C00E9000008CD
:04024000C1000008F1
:080244000C0801400408014010
:040000050800018965
:00000001FF
