:020000040800F2
:100000000028002039110008891100088911000812
:1000100089110008891100088911000800000000FA
:10002000000000000000000000000000891100082E
:1000300089110008000000008911000889110008DA
:100040008911000889110008891100088911000828
:100050008911000889110008BD020008E1020008AA
:1000600005030008290300084D0300088911000852
:1000700089110008891100088911000889110008F8
:1000800089110008891100088911000889110008E8
:1000900089110008891100088911000871030008FE
:1000A00089110008891100088911000889110008C8
:1000B000891100088911000889110008CD0C000879
:1000C000891100088911000889110008950F00089E
:1000D000F10F00084D1000086110000875100008AD
:1000E000210400088911000800000000891100089F
:1000F0008911000889110008891100088911000878
:100100008911000889110008891100088911000867
:100110008911000889110008891100088911000857
:100120008911000889110008891100088911000847
:1001300010B5054C237833B9044B13B10448AFF321
:1001400000800123237010BD180000200000000073
:10015000D411000808B5034B1BB103490348AFF3A2
:10016000008008BD000000001C000020D411000821
:1001700080B588B000AF0B4B3B600023BB60002311
:100180007B604FF48063BB610023FB613B46064903
:10019000184600F09FFA044800F08CFB00BF20379F
:1001A000BD4680BDA08601000054004080B5C8B0A7
:1001B00002AF07F10C03186007F1080319603B1D3B
:1001C0001A603B1D1B681B0ADAB207F114031A7090
:1001D0003B1D1B68DAB207F114035A70022387F83B
:1001E000173111E097F81731023B07F10C02126842
:1001F0001A4497F81731117807F11402D15497F87F
:100200001731013387F8173197F8172107F10803E1
:100210001B6802339A42E5D307F108031B68991C57
:1002200007F1140200230193012300930B462A21B6
:10023000044800F081FB0023184607F58C77BD4683
:1002400080BD00BF0054004080B5C6B002AF07F1CA
:100250000C03186007F1080319603B1D1A603B1D71
:100260001B681B0ADAB207F110031A703B1D1B68EA
:10027000DAB207F110035A7007F11002002301935C
:100280000023009302232A210B4800F055FB07F1BD
:10029000080307F10C0201210191012100911B6863
:1002A00012682A21044800F099FB0023184607F53C
:1002B0008877BD4680BD00BF0054004080B500AFC8
:1002C000054B5B69044A43F001035361034B1B6810
:1002D000984700BF80BD00BF00040140800000209F
:1002E00080B500AF054B5B69044A43F002035361DC
:1002F000034B5B68984700BF80BD00BF000401400E
:100300008000002080B500AF054B5B69044A43F0D4
:1003100004035361034B9B68984700BF80BD00BF37
:10032000000401408000002080B500AF054B5B69F0
:10033000044A43F008035361034BDB68984700BF4E
:1003400080BD00BF000401408000002080B500AFE8
:10035000054B5B69044A43F010035361034B1B696F
:10036000984700BF80BD00BF00040140800000200E
:1003700080B500AF284B5B6903F02003002B09D048
:10038000254B5B69244A43F020035361234B5B698F
:1003900098473EE0204B5B6903F04003002B09D0F7
:1003A0001D4B5B691C4A43F0400353611B4B9B6927
:1003B00098472EE0184B5B6903F08003002B09D0AF
:1003C000154B5B69144A43F080035361134BDB699F
:1003D00098471EE0104B5B6903F48073002B09D033
:1003E0000D4B5B690C4A43F4807353610B4B1B6AE2
:1003F00098470EE0084B5B6903F40073002B08D0AC
:10040000054B5B69044A43F400735361034B5B6A19
:10041000984700BF80BD00BF00040140800000205D
:1004200080B500AF304B5B6903F48063002B09D0CB
:100430002D4B5B692C4A43F4806353612B4B9B6AC1
:1004400098474EE0284B5B6903F40063002B09D00A
:10045000254B5B69244A43F400635361234BDB6AF9
:1004600098473EE0204B5B6903F48053002B09D092
:100470001D4B5B691C4A43F4805353611B4B1B6B40
:1004800098472EE0184B5B6903F40053002B09D00A
:10049000154B5B69144A43F400535361134B5B6B78
:1004A00098471EE0104B5B6903F48043002B09D092
:1004B0000D4B5B690C4A43F4804353610B4B9B6BC0
:1004C00098470EE0084B5B6903F40043002B08D00B
:1004D000054B5B69044A43F400435361034BDB6BF8
:1004E000984700BF80BD00BF00040140800000208D
:1004F00080B485B000AF0346FB800023FB73FB880C
:10050000802B49D0802B11DC082B39D0082B06DC3E
:10051000022B2FD0042B30D0012B28D057E0202BDA
:1005200034D0402B35D0102B2DD050E0B3F5006FD8
:100530003ED0B3F5006F09DCB3F5007F32D0B3F5E0
:10054000806F32D0B3F5807F29D040E0B3F5005FF3
:1005500034D0B3F5005F03DCB3F5805F2BD036E019
:10056000B3F5804F2DD0B3F5004F2DD02FE00023F1
:10057000FB732CE00423FB7329E00823FB7326E0C4
:100580000C23FB7323E01023FB7320E01423FB7385
:100590001DE01823FB731AE01C23FB7317E00023F4
:1005A000FB7314E00423FB7311E00823FB730EE0DC
:1005B0000C23FB730BE01023FB7308E01423FB7385
:1005C00005E01823FB7302E01C23FB7300BFFB7BD9
:1005D00018461437BD4680BC704780B586B000AF62
:1005E0007860396000233B613B681B88FF2B01D892
:1005F0007B6801E07B6804333B613B681B881846DD
:10060000FFF776FF0346FB733B691B68FA7B0F21FC
:1006100001FA02F2D2431A403B691A600023FB75CB
:100620003B689B78072B0BD03B689B78062B07D049
:100630003B689B78042B03D03B689B78052B0ED13D
:100640003B689B78043B9B005AB23B68DB785BB20B
:1006500013435BB2DBB203F00F03FB752CE03B6886
:100660009B78012B03D03B689B78002B07D13B681C
:100670009B789B00DBB203F00F03FB751CE03B682B
:100680009B78102B02D10423FB7515E00823FB7522
:100690003B689B78022B07D17B68DB683A6812883D
:1006A0001A437B68DA6007E07B68DB683A68128887
:1006B000D2431A407B68DA603B691B68F97DFA7B9C
:1006C00001FA02F21A433B691A6000BF1837BD46AF
:1006D00080BD0000B0B586B000AF786039600023FF
:1006E000FB820023BB8200237B826B4BFB603B6859
:1006F0006A4A934210D16A4A7B6814461D460FCD60
:100700000FC495E80F0084E80F00664BDB69654A6B
:1007100043F40013D36114E03B68634A934210D161
:100720005F4B7A6803F1200415460FCD0FC495E89E
:100730000F0084E80F005B4BDB695A4A43F48003E7
:10074000D3617B689B68002B7DD13B685B68FB8233
:10075000FB8A23F03F03FB8200F0F4FBF860FB68A8
:10076000524AA2FB03239B0CBB82FA8ABB8A134327
:10077000FB82FA8A3B685A603B681B6823F00102DF
:100780003B681A600023FB827B681B68484A9342DF
:1007900004D07B681B68B3F5A02F12D17B681B685F
:1007A0005B00FA68B2FBF3F37B82FA8A7B8A13431D
:1007B000FB82FA8A3B68DA61BB8A01331A463B68DE
:1007C0001A620023FB823B681B68FB827B689B6983
:1007D0009AB27B685B689BB213439AB27B689B6852
:1007E0009BB213439AB2FB8A1343FB82FA8A3B689B
:1007F0001A600023FB827B689B89002B0FD0FB8A49
:1008000043F00103FB827B681B8A5B001AB2B7F9D5
:10081000163013431BB2FB82FA8A3B68DA6000236E
:10082000FB827B68DB895B001AB2B7F91630134391
:100830001BB2FB827B685B699AB2FB8A1343FB8223
:10084000FA8A3B689A607B68DB69002B1AD03B68A8
:100850005B6843F4E0623B685A603B680F4A93422E
:1008600006D11F2000F00CFB202000F009FB09E05E
:100870003B680D4A934205D1212000F001FB222064
:1008800000F0FEFA3B681B6843F001023B681A6007
:1008900000BF1837BD46B0BD00127A0000540040BA
:1008A00034000020001002400058004083DE1B434B
:1008B000A086010080B584B000AF78607B681B4AD9
:1008C000934214D10723BB730123FB738023BB81A5
:1008D00007F10C0319461648FFF77FFE4023BB8142
:1008E00007F10C0319461248FFF777FE19E07B6801
:1008F000104A934215D10723BB730123FB734FF4B6
:100900000063BB8107F10C0319460948FFF765FE38
:100910004FF48063BB8107F10C0319460448FFF7CD
:100920005CFE00BF1037BD4680BD00BF00540040D4
:10093000000C01400058004080B586B000AFF86060
:100940007A603B600B467B8197F824300022194681
:10095000F86800F0B1F800BF0121F86800F00AF96A
:100960000346002BF8D07B8900221946F86800F076
:1009700079F900BF0221F86800F0FCF80346002B6B
:10098000F8D000BF0621F86800F0F4F80346002B09
:10099000F8D00023FB7511E0FB7D7A6813441B78C7
:1009A0001A46FB681A6100BF0421F86800F0E2F8FB
:1009B0000346002BF8D0FB7D0133FB75FB7D3A68C5
:1009C0009A42E9D897F82030012B03D10021F8682A
:1009D00000F099F800BF1837BD4680BD80B586B0DD
:1009E00000AFF8607A603B600B467B81FB68304A61
:1009F000934214BF01230023DBB2BB7597F8243068
:100A000000221946F86800F057F800BF0121F86885
:100A100000F0B0F80346002BF8D07B89012219467C
:100A2000F86800F01FF900BF0221F86800F0A2F892
:100A30000346002BF8D00021F86800F07FF83B68EF
:100A4000002B1CD03B68FB7512E000BF0521F86845
:100A500000F090F80346002BF8D0FB681B69DAB26F
:100A60007B681A707B6801337B60FB7D013BFB7503
:100A7000FB7D012BE9D80121F86800F05FF897F8B9
:100A80002030012B03D10021F86800F03CF8BB7D39
:100A9000084A5B01134418331B68B3F5806F03D118
:100AA0000021F86800F04AF800BF1837BD4680BD45
:100AB000005400403400002080B582B000AF786060
:100AC0000B46FB701346BB70FB78012B07D000BFB1
:100AD0000021786800F04EF80346002BF8D1BB786F
:100AE000012B06D07B681B6843F480727B681A6018
:100AF00005E07B681B6823F480727B681A6000BF86
:100B00000837BD4680BD80B483B000AF78600B4627
:100B1000FB70FB78012B06D07B681B6843F40072E6
:100B20007B681A6005E07B681B6823F400727B68B1
:100B30001A6000BF0C37BD4680BC704780B483B0DC
:100B400000AF78600B46FB70FB78012B06D07B680A
:100B50001B6843F480627B681A6005E07B681B6851
:100B600023F480627B681A6000BF0C37BD4680BCEE
:100B70007047000080B485B000AF78600B46FB7012
:100B80000023FB730023BB60FB78062B64D801A213
:100B900052F823F0B10B0008C70B0008DD0B00086A
:100BA000F30B0008F30B0008430C0008090C0008C5
:100BB0007B689B6903F00203002B14BF0123002311
:100BC000DBB2FB7348E07B685B6903F00103002B39
:100BD00014BF01230023DBB2FB733DE07B685B693C
:100BE00003F00203002B14BF01230023DBB2FB73CD
:100BF00032E07B685B6903F08003002B14BF0123A4
:100C00000023DBB2FB7327E07B685B6903F08003A2
:100C1000002B13D07B689B6903F00203002B0DD0DF
:100C20007B689B6903F00103002B07D07B689B69FD
:100C300003F00403002B01D0012300E00023FB7329
:100C40000AE07B685B6903F04003002B14BF0123BB
:100C50000023DBB2FB7300BFFB7B18461437BD4695
:100C600080BC704780B485B000AF78600B467B8055
:100C700013467B707B68134A934214BF0123002301
:100C8000DBB2FB73FB7B104A5B01134414331B681C
:100C9000002B11D17B885B007B807B78002B04D1FB
:100CA0007B8823F001037B8003E07B8843F0010312
:100CB0007B807A887B681A6100BF1437BD4680BC90
:100CC000704700BF005400403400002080B586B05B
:100CD00000AF00237B60374B7B617B695B6803F46B
:100CE00000733B617B695B6803F48063FB607B6935
:100CF0005B6903F48073BB603B69002B0AD0BB685F
:100D0000002B07D07B691A687B691A60002178691B
:100D100000F052F87B695B6903F00203BB603B693A
:100D2000002B12D0BB68002B0FD07B699B6903F0AE
:100D30000103002B09D17B695B697B607B699B693F
:100D40007B600221786900F037F87B695B6903F00A
:100D50008003BB603B69002B0FD0FB68002B0CD0DD
:100D6000BB68002B09D07B699B6903F00103002B52
:100D700003D10321786900F01FF87B695B6903F0F8
:100D80004003BB603B69002B0FD0FB68002B0CD0ED
:100D9000BB68002B09D07B699B6903F00103002B22
:100DA00003D10421786900F007F800BF1837BD4669
:100DB00080BD00BF0054004080B584B000AF7860B3
:100DC0000B46FB707B682C4A934214BF012300231F
:100DD000DBB2FB73FB78042B4AD801A252F823F054
:100DE000FB0D0008F50D0008190E00082B0E000879
:100DF000490E00087B689B693AE07B689B6903F0B9
:100E00000403002B2FD0FB7B1C4A5B0113441C33D3
:100E10001B680020984726E0FB7B184A5B011344BF
:100E20001C331B680220984722E07B689B6903F013
:100E30000403002B19D0FB7B104A5B0113441C33C5
:100E40001B680320984710E07B689B6903F004034C
:100E5000002B0CD1FB7B094A5B0113441C331B683C
:100E60000420984703E000BF02E000BF00E000BF9D
:100E700000BF1037BD4680BD005400403400002044
:100E800080B483B000AF0346FB71FB791F2B0AD8F7
:100E9000194B1B68FA79012101FA02F21146164A30
:100EA0000B43136022E0FB791F2B0ED9FB793F2BFC
:100EB0000BD8114B5B68FA79203A012101FA02F252
:100EC00011460D4A0B43536010E0FB793F2B0DD9BF
:100ED000FB79432B0AD8084B9B68FA79203A012109
:100EE00001FA02F21146044A0B43936000BF0C372B
:100EF000BD4680BC704700BF00E100E080B483B015
:100F000000AF0D4B5B689B08DBB203F00303FB7182
:100F1000FB79012B05D0022B05D0002B05D1074B07
:100F200004E0074B02E0064B00E0002318460C37B4
:100F3000BD4680BC704700BF0010024000127A001E
:100F40000024F40080B500AF00F010F80146054B16
:100F50005B681B0A03F00703034AD35C21FA03F31F
:100F6000184680BD001002400000002080B500AF90
:100F7000FFF7C4FF0146054B5B681B0903F00F0335
:100F8000034AD35C21FA03F3184680BD00100240E7
:100F90000800002080B582B000AF134B9B685B084F
:100FA00003F00103DAB23B7962F300033B710E4BAD
:100FB0009B6803F00103DAB23B7962F341033B71B2
:100FC000094B9B681B0903F00103DAB23B7962F31A
:100FD00082033B71054B1B685B693879984700BFFA
:100FE0000837BD4680BD00BF0030014074000020BE
:100FF00080B582B000AF134B9B685B0803F0010320
:10100000DAB23B7962F300033B710E4B9B6803F04D
:101010000103DAB23B7962F341033B71094B9B68F0
:101020001B0903F00103DAB23B7962F382033B71DF
:10103000054B5B685B693879984700BF0837BD4648
:1010400080BD00BF003800407400002080B500AFB4
:10105000024B1B681B69984700BF80BD7C000020C5
:1010600080B500AF024B1B681B69984700BF80BD6D
:101070007C00002080B500AF024B1B681B699847BD
:1010800000BF80BD7C00002080B400AF0A4B9B698C
:10109000094A43F004039361074B9B69064A43F0F6
:1010A00008039361044B9B69034A43F00103936176
:1010B00000BFBD4680BC70470010024080B584B0C0
:1010C00000AFFFF7E1FFFFF753F81A4A07F10803F3
:1010D00092E8030018600433198002330A0C1A7076
:1010E0003B4600221A60C3F8032007F10803AF2231
:1010F00007211846FFF75AF83B46AF22072118464A
:10110000FFF7A2F80A233B720B237B720C23BB72FE
:101110000D23FB7207F1080340F6FF720421184605
:10112000FFF744F83B4640F6FF7204211846FFF7EC
:101130008BF8FEE7EC1100080D488546AFF3008000
:101140000C480D490D4A002302E0D458C450043322
:10115000C4188C42F9D30A4A0A4C002301E01360F8
:101160000432A242FBD300F011F8FFF7A7FFFEE71D
:10117000002800200000002018000020FC110008BA
:1011800018000020C0000020FEE7000070B5002518
:101190000C4E0D4CA41BA410A54209D100F01AF866
:1011A00000250A4E0A4CA41BA410A54205D170BD0F
:1011B00056F8253098470135EEE756F82530984720
:1011C0000135F2E7F4110008F4110008F4110008E9
:1011D000F8110008F8B500BFF8BC08BC9E4670477F
:0C11E000F8B500BFF8BC08BC9E46704784
:0811EC000102030405060700DF
:0411F4005501000899
:0411F80031010008B9
:1011FC0000000000010203040000000000000000D9
:08120C000102030406070809B2
:0400000508001139A5
:00000001FF
