:020000040800F2
:1000000000280020610F0008B10F0008B10F0008A0
:10001000B10F0008B10F0008B10F00080000000088
:10002000000000000000000000000000B10F000808
:10003000B10F000800000000B10F0008B10F000868
:10004000B10F0008B10F0008B10F0008B10F000890
:10005000B10F0008B10F00087101000895010008F8
:10006000B9010008DD01000801020008B10F000815
:10007000B10F0008B10F0008B10F0008B10F000860
:10008000B10F0008B10F0008B10F0008B10F000850
:10009000B10F0008B10F0008B10F000825020008D9
:1000A000B10F0008B10F0008B10F0008B10F000830
:1000B000B10F0008B10F0008B10F0008B10F000820
:1000C000B10F0008B10F0008B10F0008D10A0008F5
:1000D0002D0B00080D0E0008210E0008350E00083B
:1000E000D5020008B10F000800000000B10F0008A1
:1000F000B10F0008B10F0008B10F0008B10F0008E0
:10010000B10F0008B10F0008B10F0008B10F0008CF
:10011000B10F0008B10F0008B10F0008B10F0008BF
:10012000B10F0008B10F0008B10F0008B10F0008AF
:1001300010B5054C237833B9044B13B10448AFF321
:1001400000800123237010BD180000200000000073
:10015000FC0F000808B5034B1BB103490348AFF37C
:10016000008008BD000000001C000020FC0F0008FB
:1001700080B500AF054B5B69044A43F0010353614E
:10018000034B1B68984700BF80BD00BF00040140BF
:100190004000002080B500AF054B5B69044A43F086
:1001A00002035361034B5B68984700BF80BD00BFEB
:1001B000000401404000002080B500AF054B5B69A2
:1001C000044A43F004035361034B9B68984700BF04
:1001D00080BD00BF000401404000002080B500AF9A
:1001E000054B5B69044A43F008035361034BDB682A
:1001F000984700BF80BD00BF0004014040000020C0
:1002000080B500AF054B5B69044A43F010035361AE
:10021000034B1B69984700BF80BD00BF000401402D
:100220004000002080B500AF284B5B6903F020033D
:10023000002B09D0254B5B69244A43F0200353610E
:10024000234B5B6998473EE0204B5B6903F040031A
:10025000002B09D01D4B5B691C4A43F040035361DE
:100260001B4B9B6998472EE0184B5B6903F080039A
:10027000002B09D0154B5B69144A43F0800353618E
:10028000134BDB6998471EE0104B5B6903F48073E6
:10029000002B09D00D4B5B690C4A43F4807353610A
:1002A0000B4B1B6A98470EE0084B5B6903F4007325
:1002B000002B08D0054B5B69044A43F4007353617B
:1002C000034B5B6A984700BF80BD00BF000401403C
:1002D0004000002080B500AF304B5B6903F48063C1
:1002E000002B09D02D4B5B692C4A43F4806353618A
:1002F0002B4B9B6A98474EE0284B5B6903F40063E5
:10030000002B09D0254B5B69244A43F400635361F9
:10031000234BDB6A98473EE0204B5B6903F4805334
:10032000002B09D01D4B5B691C4A43F48053536179
:100330001B4B1B6B98472EE0184B5B6903F4005373
:10034000002B09D0154B5B69144A43F400535361E9
:10035000134B5B6B98471EE0104B5B6903F48043C3
:10036000002B09D00D4B5B690C4A43F48043536169
:100370000B4B9B6B98470EE0084B5B6903F4004303
:10038000002B08D0054B5B69044A43F400435361DA
:10039000034BDB6B984700BF80BD00BF00040140EA
:1003A0004000002080B483B000AF0346FB71FB79AE
:1003B0001F2B0AD8194B1B68FA79012101FA02F2A6
:1003C0001146164A0B43136022E0FB791F2B0ED90E
:1003D000FB793F2B0BD8114B5B68FA79203A01214E
:1003E00001FA02F211460D4A0B43536010E0FB790B
:1003F0003F2B0DD9FB79432B0AD8084B9B68FA7920
:10040000203A012101FA02F21146044A0B4393609B
:1004100000BF0C37BD4680BC704700BF00E100E064
:1004200080B483B000AF0346FB71FB791F2B0AD861
:10043000194B1B68FA79012101FA02F21146164A9A
:100440000B43136022E0FB791F2B0ED9FB793F2B66
:100450000BD8114B5B68FA79203A012101FA02F2BC
:1004600011460D4A0B43536010E0FB793F2B0DD929
:10047000FB79432B0AD8084B9B68FA79203A012173
:1004800001FA02F21146044A0B43936000BF0C3795
:10049000BD4680BC704700BF80E100E080B485B0FD
:1004A00000AF0346FB800023FB73FB88802B49D001
:1004B000802B11DC082B39D0082B06DC022B2FD027
:1004C000042B30D0012B28D057E0202B34D0402BE8
:1004D00035D0102B2DD050E0B3F5006F3ED0B3F5E2
:1004E000006F09DCB3F5007F32D0B3F5806F32D0F6
:1004F000B3F5807F29D040E0B3F5005F34D0B3F589
:10050000005F03DCB3F5805F2BD036E0B3F5804F9E
:100510002DD0B3F5004F2DD02FE00023FB732CE03E
:100520000423FB7329E00823FB7326E00C23FB73F1
:1005300023E01023FB7320E01423FB731DE018233A
:10054000FB731AE01C23FB7317E00023FB7314E01A
:100550000423FB7311E00823FB730EE00C23FB73F1
:100560000BE01023FB7308E01423FB7305E0182352
:10057000FB7302E01C23FB7300BFFB7B18461437A0
:10058000BD4680BC704780B586B000AF78603960EA
:1005900000233B613B681B88FF2B01D87B6801E08F
:1005A0007B6804333B613B681B881846FFF776FF86
:1005B0000346FB733B691B68FA7B0F2101FA02F2C9
:1005C000D2431A403B691A600023FB753B689B7855
:1005D000072B0BD03B689B78062B07D03B689B789A
:1005E000042B03D03B689B78052B0ED13B689B788E
:1005F000043B9B005AB23B68DB785BB213435BB2AF
:10060000DBB203F00F03FB752CE03B689B78012BFA
:1006100003D03B689B78002B07D13B689B789B00FD
:10062000DBB203F00F03FB751CE03B689B78102BDB
:1006300002D10423FB7515E00823FB753B689B780A
:10064000022B07D17B68DB683A6812881A437B6803
:10065000DA6007E07B68DB683A681288D2431A40A8
:100660007B68DA603B691B68F97DFA7B01FA02F26C
:100670001A433B691A6000BF1837BD4680BD0000B1
:1006800080B483B000AF0D4B5B689B08DBB203F016
:100690000303FB71FB79012B05D0022B05D0002B46
:1006A00005D1074B04E0074B02E0064B00E00023B6
:1006B00018460C37BD4680BC704700BF0010024092
:1006C00000127A000024F40080B500AF00F024F896
:1006D0000146054B5B681B0A03F00703034AD35C22
:1006E00021FA03F3184680BD0010024000000020EC
:1006F00080B500AF00F010F80146054B5B68DB0ADF
:1007000003F00703034AD35C21FA03F3184680BDC4
:10071000001002400000002080B500AFFFF7B0FFDE
:100720000146054B5B681B0903F00F03034AD35CCA
:1007300021FA03F3184680BD001002400800002093
:1007400080B584B000AF786039600023FB8100235E
:10075000BB813B68494A934209D1494A7B6813608F
:10076000484B9B69474A43F4805393610CE03B68D4
:10077000454A934208D1424A7B685360414BDB694A
:10078000404A43F48043D3614023FB817B681A884D
:10079000FB891343FB817B685A88FB891343FB81E8
:1007A0007B689A88FB891343FB817B68DA88FB8925
:1007B0001343FB817B681A89FB891343FB817B68A8
:1007C0005B89042B05D17B685A89BB891343BB81A4
:1007D0000EE07B685B89002B05D17B685A89BB8959
:1007E0001340BB8104E07B685A89FB891343FB817A
:1007F0007B689A89FB891343FB817B68DA89FB89D3
:100800001343FB817B681B8A002B14D07B681A8AF8
:10081000BB891343BB813B68184A934203D1232011
:10082000FFF7C0FD16E03B68174A934212D124201F
:10083000FFF7B8FD0EE03B68104A934203D1232036
:10084000FFF7EEFD06E03B680F4A934202D12420F9
:10085000FFF7E6FDFA893B681A60BA893B685A607F
:100860003B68DB6923F400623B68DA613B68002285
:100870001A6100BF1037BD4680BD00BF0030014087
:1008800034000020001002400038004080B584B0E1
:1008900000AF78607B68734A934269D1724B1B68E2
:1008A0001B88042B34D1704B1B685B89042B0CD143
:1008B0000623BB730123FB731023BB8107F10C03D9
:1008C00019466A48FFF75FFE00BF0623BB7301238A
:1008D000FB732023BB8107F10C0319466348FFF724
:1008E00052FE0623BB730123FB738023BB8107F1F8
:1008F0000C0319465D48FFF746FE0123BB734023F6
:10090000BB8107F10C0319465848FFF73CFEA4E0F1
:10091000554B1B681B88002B09D10123BB73102387
:10092000BB8107F10C0319465048FFF72CFE012349
:10093000BB732023BB8107F10C0319464B48FFF71B
:1009400022FE0123BB738023BB8107F10C031946F0
:100950004648FFF718FE0623BB730123FB734023B1
:10096000BB8107F10C0319464048FFF70CFE74E009
:100970007B683F4A934270D13B4B5B681B88042BDA
:1009800038D1394B5B685B89042B0DD10623BB73CF
:100990000123FB734FF48053BB8107F10C0319460D
:1009A0003448FFF7F0FD00BF0623BB730123FB7340
:1009B0004FF40053BB8107F10C0319462D48FFF794
:1009C000E2FD0623BB730123FB734FF40043BB819D
:1009D00007F10C0319462748FFF7D5FD0123BB7328
:1009E0004FF48043BB8107F10C0319462148FFF700
:1009F000CAFD32E01C4B5B681B88002B0AD1012327
:100A0000BB734FF48053BB8107F10C03194619489F
:100A1000FFF7B9FD0123BB734FF40053BB8107F10E
:100A20000C0319461348FFF7AEFD0123BB734FF4C7
:100A30000043BB8107F10C0319460E48FFF7A3FDE5
:100A40000623BB730123FB734FF48043BB8107F183
:100A50000C0319460748FFF796FD00BF1037BD4647
:100A600080BD00BF0030014034000020000801407C
:100A700000380040000C014080B485B000AFF86041
:100A8000B9601346FB71FB79002B06D100BFFB68F0
:100A90009B6803F00203002BF9D0FB68DB68BA689F
:100AA00012881A43FB68DA60FB79002B06D100BF7D
:100AB000FB689B6803F00103002BF9D0FB68DB683F
:100AC0009AB2BB681A8000BF1437BD4680BC70471D
:100AD00080B582B000AF134B9B685B0803F0010345
:100AE000DAB23B7962F300033B710E4B9B6803F073
:100AF0000103DAB23B7962F341033B71094B9B6816
:100B00001B0903F00103DAB23B7962F382033B7104
:100B1000054B1B685B693879984700BF0837BD46AD
:100B200080BD00BF003001403400002080B582B09D
:100B300000AF134B9B685B0803F00103DAB23B790B
:100B400062F300033B710E4B9B6803F00103DAB2C2
:100B50003B7962F341033B71094B9B681B0903F02E
:100B60000103DAB23B7962F382033B71054B5B68A8
:100B70005B693879984700BF0837BD4680BD00BF24
:100B8000003800403400002080B584B000AF7860A9
:100B90003960574A7B6813603B68564A934205D1D7
:100BA000554B9B69544A43F4804393613B68534AD5
:100BB000934206D1504BDB694F4A43F40033D36173
:100BC00009E03B684E4A934205D14B4BDB694A4AE8
:100BD00043F48023D3613B68DB6843F400523B68F5
:100BE000DA603B68DB68424A126812781A433B6855
:100BF000DA603B681B693E4A1268127A1A433B6806
:100C00001A613B68DB683A4A1268527A1A433B68B9
:100C1000DA603B68DB68364A1268927A1A433B68AE
:100C2000DA603B685B69324A1268D27A1A433B68E1
:100C30005A613B682F4A934203D1FFF759FDF86090
:100C400002E0FFF741FDF860294B1B685B681B0160
:100C5000FA68B2FBF3F31901FA6813469B001344D8
:100C60009A001A44224B1B685B689B00B2FBF3F2AC
:100C70001F4B1B685B681B01F868B0FBF3F3642033
:100C800000FB03F3D31A1B011E4AA2FB03235B09DB
:100C900003F00F030B43BB603B68BA689A60144BC8
:100CA0001B681B7B002B1ED03B68DB68104A126858
:100CB000127B1A433B68DA603B680E4A934203D1C9
:100CC0002520FFF76FFB0EE03B680C4A934203D1EF
:100CD0002620FFF767FB06E03B68094A934202D1F2
:100CE0002720FFF75FFB00BF1037BD4680BD00BF68
:100CF0003C00002000380140001002400044004049
:100D0000004800401F85EB5180B584B000AF78608B
:100D10007B682B4A934218D10623BB730123FB73D4
:100D20004FF40073BB8107F10C0319462548FFF708
:100D30002AFC1023BB734FF48063BB8107F10C03C3
:100D400019462048FFF71FFC36E07B681E4A934295
:100D500016D10623BB730123FB730423BB8107F168
:100D60000C0319461748FFF70EFC1023BB7308232A
:100D7000BB8107F10C0319461248FFF704FC1BE086
:100D80007B68124A934217D10623BB730123FB737E
:100D90004FF48063BB8107F10C0319460C48FFF741
:100DA000F2FB1023BB734FF40063BB8107F10C030C
:100DB00019460748FFF7E7FB00BF1037BD4680BD67
:100DC0000038014000080140004400400048004055
:100DD000000C014080B485B000AFF860B9601346E4
:100DE000FB71FB79002B06D100BFFB681B6803F089
:100DF0008003002BF9D0BB681B88DAB2FB685A600D
:100E000000BF1437BD4680BC7047000080B500AFFE
:100E1000024B1B681B69984700BF80BD3C00002047
:100E200080B500AF024B1B681B69984700BF80BDAF
:100E30003C00002080B500AF024B1B681B6998473F
:100E400000BF80BD3C00002080B400AF0A4B9B690E
:100E5000094A43F004039361074B9B69064A43F038
:100E600008039361044B9B69034A43F001039361B8
:100E700000BFBD4680BC70470010024080B582B004
:100E800000AF38713B7903F00203DBB2002B0CD0CA
:100E9000084B0F221A80012206490748FFF7ECFD94
:100EA000002204490548FFF795FF00BF0837BD46FB
:100EB00080BD00BF800000200030014000380140AC
:100EC00080B400AF00BFBD4680BC704780B58CB019
:100ED00000AFFFF7B9FF4FF4E133FB61002387F860
:100EE0002230002387F82130002387F820300023A8
:100EF00087F823300C233B76154BBB62202387F801
:100F0000243007F1180313491846FFF73DFE114836
:100F1000FFF7FAFE00237B800023BB800023FB80C9
:100F200010233B810223BB810123FB8100233B80F3
:100F300000237B8140233B82074B7B613B46074973
:100F40001846FFF7FDFB0548FFF7A0FCFEE700BFD2
:100F5000C10E0008003801407D0E0008003001403D
:100F60000D488546AFF300800C480D490D4A00231B
:100F700002E0D458C4500433C4188C42F9D30A4A4E
:100F80000A4C002301E013600432A242FBD300F0BC
:100F900011F8FFF79BFFFEE700280020000000206B
:100FA000180000201C1000081800002084000020F9
:100FB000FEE7000070B500250C4E0D4CA41BA410DC
:100FC000A54209D100F01AF800250A4E0A4CA41BCC
:100FD000A410A54205D170BD56F8253098470135BB
:100FE000EEE756F8253098470135F2E7141000086F
:100FF000141000081410000818100008F8B500BFFD
:10100000F8BC08BC9E467047F8B500BFF8BC08BCE9
:041010009E46704741
:04101400550100087A
:04101800310100089A
:10101C0000000000010203040000000000000000BA
:08102C00010203040607080994
:0400000508000F617F
:00000001FF
