:020000040800F2
:1000000000280020B50D0008050E0008050E0008A8
:10001000050E0008050E0008050E0008000000008F
:10002000000000000000000000000000050E0008B5
:10003000050E000800000000050E0008050E00086F
:10004000050E0008050E0008050E0008050E000844
:10005000050E0008050E0008A9030008CD030008DE
:10006000F10300081504000839040008050E000813
:10007000050E0008050E0008050E0008050E000814
:10008000050E0008050E0008050E0008050E000804
:10009000050E0008050E0008050E00085D040008A6
:1000A000050E0008050E0008050E0008050E0008E4
:1000B000050E0008050E0008050E0008050E0008D4
:1000C000050E0008050E0008050E00085509000879
:1000D000A1090008CD0C0008E10C0008F50C00088F
:1000E0000D050008050E000800000000050E0008C0
:1000F000050E0008050E0008050E0008050E000894
:10010000050E0008050E0008050E0008050E000883
:10011000050E0008050E0008050E0008050E000873
:10012000050E0008050E0008050E0008050E000863
:1001300010B5054C237833B9044B13B10448AFF321
:1001400000800123237010BD180000200000000073
:10015000500E000808B5034B1BB103490348AFF329
:10016000008008BD000000001C000020500E0008A8
:1001700080B485B000AF78600023FB600BE0002303
:10018000BB6002E0BB680133BB60BB68FE2BF9D9E2
:10019000FB680133FB60FA687B689A42EFD300BFCB
:1001A0001437BD4680BC704780B500AF1420FFF700
:1001B000DFFF5B4B04229A70594B0122DA70584BD7
:1001C00001221A805649574800F0BBFA544B0422CA
:1001D0009A70534B0122DA70514B02221A80504917
:1001E000504800F0AEFA4E4B04221A804C4B0422C9
:1001F0009A704B4B0122DA7049494A4800F0A1FA43
:10020000474B08221A80464B04229A70444B012225
:10021000DA704349434800F094FA414B10221A80A7
:100220003F4B04229A703E4B0122DA703C493D4814
:1002300000F087FA3A4B20221A80394B04229A7038
:10024000374B0122DA703649364800F07AFA344BDF
:1002500040221A80324B04229A70314B0122DA700C
:100260002F49304800F06DFA2D4B80221A802C4B1C
:1002700004229A702A4B0122DA702949294800F099
:1002800060FA274B04229A70254B4FF480621A8043
:10029000234B0122DA702249224800F052FA002250
:1002A0004FF480611F4800F0C8FA1D4B04229A7079
:1002B0001B4B4FF400721A80194B0122DA70184957
:1002C000184800F03EFA00224FF40071154800F083
:1002D000B4FA134B04229A70114B4FF480721A80B7
:1002E0000F4B0122DA700E490E4800F02AFA002264
:1002F0004FF480710B4800F0A0FA0F20FFF738FF91
:1003000000F034F8382000F00FF8062000F00CF868
:10031000802000F009F80F2000F006F800BF80BD33
:10032000400000200008014080B582B000AF0346C5
:10033000FB71FB799BB219460B4800F09CFA002236
:100340004FF48071084800F078FA00224FF40071F1
:10035000054800F072FA0120FFF70AFF00F00EF8DE
:1003600000BF0837BD4680BD0008014080B500AF22
:100370000120FFF7D9FF00BF80BD000080B500AFAE
:1003800001224FF48061074800F057FA3220FFF74E
:10039000EFFE00224FF48061024800F04EFA00BFE9
:1003A00080BD00BF0008014080B500AF054B5B6910
:1003B000044A43F001035361034B1B68984700BF95
:1003C00080BD00BF000401404400002080B500AFA4
:1003D000054B5B69044A43F002035361034B5B68BE
:1003E000984700BF80BD00BF0004014044000020CA
:1003F00080B500AF054B5B69044A43F004035361C9
:10040000034B9B68984700BF80BD00BF00040140BC
:100410004400002080B500AF054B5B69044A43F0FF
:1004200008035361034BDB68984700BF80BD00BFE2
:10043000000401404400002080B500AF054B5B691B
:10044000044A43F010035361034B1B69984700BFF4
:1004500080BD00BF000401404400002080B500AF13
:10046000284B5B6903F02003002B09D0254B5B6907
:10047000244A43F020035361234B5B6998473EE0D5
:10048000204B5B6903F04003002B09D01D4B5B69D7
:100490001C4A43F0400353611B4B9B6998472EE075
:1004A000184B5B6903F08003002B09D0154B5B6987
:1004B000144A43F080035361134BDB6998471EE0F5
:1004C000104B5B6903F48073002B09D00D4B5B6903
:1004D0000C4A43F4807353610B4B1B6A98470EE040
:1004E000084B5B6903F40073002B08D0054B5B6974
:1004F000044A43F400735361034B5B6A984700BF9F
:1005000080BD00BF000401404400002080B500AF62
:10051000304B5B6903F48063002B09D02D4B5B6982
:100520002C4A43F4806353612B4B9B6A98474EE0FF
:10053000284B5B6903F40063002B09D0254B5B69F2
:10054000244A43F400635361234BDB6A98473EE03F
:10055000204B5B6903F48053002B09D01D4B5B6972
:100560001C4A43F4805353611B4B1B6B98472EE08E
:10057000184B5B6903F40053002B09D0154B5B69E2
:10058000144A43F400535361134B5B6B98471EE0CE
:10059000104B5B6903F48043002B09D00D4B5B6962
:1005A0000C4A43F4804353610B4B9B6B98470EE01E
:1005B000084B5B6903F40043002B08D0054B5B69D3
:1005C000044A43F400435361034BDB6B984700BF7D
:1005D00080BD00BF000401404400002080B483B00F
:1005E00000AF0346FB71FB791F2B0AD8194B1B6820
:1005F000FA79012101FA02F21146164A0B431360FF
:1006000022E0FB791F2B0ED9FB793F2B0BD8114B26
:100610005B68FA79203A012101FA02F211460D4A8B
:100620000B43536010E0FB793F2B0DD9FB79432B33
:100630000AD8084B9B68FA79203A012101FA02F2A4
:100640001146044A0B43936000BF0C37BD4680BC83
:10065000704700BF00E100E080B485B000AF034602
:10066000FB800023FB73FB88802B49D0802B11DC9F
:10067000082B39D0082B06DC022B2FD0042B30D0CE
:10068000012B28D057E0202B34D0402B35D0102B15
:100690002DD050E0B3F5006F3ED0B3F5006F09DC0C
:1006A000B3F5007F32D0B3F5806F32D0B3F5807FE1
:1006B00029D040E0B3F5005F34D0B3F5005F03DC30
:1006C000B3F5805F2BD036E0B3F5804F2DD0B3F576
:1006D000004F2DD02FE00023FB732CE00423FB738D
:1006E00029E00823FB7326E00C23FB7323E010238F
:1006F000FB7320E01423FB731DE01823FB731AE047
:100700001C23FB7317E00023FB7314E00423FB732B
:1007100011E00823FB730EE00C23FB730BE01023A6
:10072000FB7308E01423FB7305E01823FB7302E05E
:100730001C23FB7300BFFB7B18461437BD4680BCEF
:10074000704780B586B000AF7860396000233B61A8
:100750003B681B88FF2B01D87B6801E07B68043372
:100760003B613B681B881846FFF776FF0346FB7327
:100770003B691B68FA7B0F2101FA02F2D2431A404F
:100780003B691A600023FB753B689B78072B0BD0F5
:100790003B689B78062B07D03B689B78042B03D0E3
:1007A0003B689B78052B0ED13B689B78043B9B00F4
:1007B0005AB23B68DB785BB213435BB2DBB203F047
:1007C0000F03FB752CE03B689B78012B03D03B6843
:1007D0009B78002B07D13B689B789B00DBB203F032
:1007E0000F03FB751CE03B689B78102B02D10423A0
:1007F000FB7515E00823FB753B689B78022B07D13E
:100800007B68DB683A6812881A437B68DA6007E025
:100810007B68DB683A681288D2431A407B68DA60EA
:100820003B691B68F97DFA7B01FA02F21A433B69C6
:100830001A6000BF1837BD4680BD80B483B000AFDA
:1008400078600B467B8013467B707B78002B06D04C
:100850007B68DA687B881A437B68DA6006E07B682D
:10086000DA687B88DB431A407B68DA6000BF0C37AC
:10087000BD4680BC704780B483B000AF78600B4643
:100880007B807A887B68DA6000BF0C37BD4680BC0D
:100890007047000080B483B000AF0D4B5B689B08CD
:1008A000DBB203F00303FB71FB79012B05D0022BB4
:1008B00005D0002B05D1074B04E0074B02E0064BA7
:1008C00000E0002318460C37BD4680BC704700BFCF
:1008D0000010024000127A000024F40080B500AF3E
:1008E00000F024F80146054B5B681B0A03F0070380
:1008F000034AD35C21FA03F3184680BD001002407E
:100900000000002080B500AF00F010F80146054B54
:100910005B68DB0A03F00703034AD35C21FA03F3A5
:10092000184680BD001002400000002080B500AFD6
:10093000FFF7B0FF0146054B5B681B0903F00F038F
:10094000034AD35C21FA03F3184680BD001002402D
:100950000800002080B582B000AF0F4B9B685B0899
:1009600003F00103DAB23B7962F300033B710A4BF7
:100970009B683B796FF341033B71074B9B683B7965
:100980006FF382033B71054B1B685B6938799847AD
:1009900000BF0837BD4680BD003001403400002054
:1009A00080B582B000AF0F4B9B685B0803F001037A
:1009B000DAB23B7962F300033B710A4B9B683B79E7
:1009C0006FF341033B71074B9B683B796FF38203E5
:1009D0003B71054B5B685B693879984700BF083706
:1009E000BD4680BD003800403400002080B584B092
:1009F00000AF78603960574A7B6813603B68564A9D
:100A0000934205D1554B9B69544A43F4804393610B
:100A10003B68534A934206D1504BDB694F4A43F43B
:100A20000033D36109E03B684E4A934205D14B4BFA
:100A3000DB694A4A43F48023D3613B68DB6843F4B3
:100A400000523B68DA603B68DB68424A1268127801
:100A50001A433B68DA603B681B693E4A1268127AA7
:100A60001A433B681A613B68DB683A4A1268527A5B
:100A70001A433B68DA603B68DB68364A1268927A50
:100A80001A433B68DA603B685B69324A1268D27A83
:100A90001A433B685A613B682F4A934203D1FFF7E0
:100AA00031FFF86002E0FFF719FFF860294B1B687F
:100AB0005B681B01FA68B2FBF3F31901FA6813468D
:100AC0009B0013449A001A44224B1B685B689B00EE
:100AD000B2FBF3F21F4B1B685B681B01F868B0FBAD
:100AE000F3F3642000FB03F3D31A1B011E4AA2FB9D
:100AF00003235B0903F00F030B43BB603B68BA6839
:100B00009A60144B1B681B7B002B1ED03B68DB6874
:100B1000104A1268127B1A433B68DA603B680E4A3F
:100B2000934203D12520FFF759FD0EE03B680C4AA4
:100B3000934203D12620FFF751FD06E03B68094AA6
:100B4000934202D12720FFF749FD00BF1037BD4671
:100B500080BD00BF3C000020003801400010024072
:100B600000440040004800401F85EB5180B584B030
:100B700000AF78607B682B4A934218D10623BB7381
:100B80000123FB734FF40073BB8107F10C0319467B
:100B90002548FFF7D6FD1023BB734FF48063BB815C
:100BA00007F10C0319462048FFF7CBFD36E07B68C0
:100BB0001E4A934216D10623BB730123FB73042301
:100BC000BB8107F10C0319461748FFF7BAFD102344
:100BD000BB730823BB8107F10C0319461248FFF7CA
:100BE000B0FD1BE07B68124A934217D10623BB730A
:100BF0000123FB734FF48063BB8107F10C0319469B
:100C00000C48FFF79EFD1023BB734FF40063BB81BC
:100C100007F10C0319460748FFF793FD00BF103793
:100C2000BD4680BD0038014000080140004400403E
:100C300000480040000C014080B485B000AFF8606F
:100C4000B9601346FB71FB79002B06D100BFFB682E
:100C50001B6803F08003002BF9D0BB681B88DAB255
:100C6000FB685A6000BF1437BD4680BC7047000067
:100C700080B485B000AFF860B9601346FB71FB79B2
:100C8000002B06D100BFFB681B6803F02003002B7C
:100C9000F9D00D4B1B689B7A002B07D1FB685B6872
:100CA0009BB2DBB29AB2BB681A8007E0FB685B6854
:100CB0009BB203F07F039AB2BB681A8000BF14375F
:100CC000BD4680BC704700BF3C00002080B500AF2F
:100CD000024B1B681B69984700BF80BD3C00002089
:100CE00080B500AF024B1B681B69984700BF80BDF1
:100CF0003C00002080B500AF024B1B681B69984781
:100D000000BF80BD3C00002080B400AF0A4B9B694F
:100D1000094A43F004039361074B9B69064A43F079
:100D200008039361044B9B69034A43F001039361F9
:100D300000BFBD4680BC70470010024080B582B045
:100D400000AF7860002206490648FFF791FF0022B5
:100D500003490448FFF770FF00BF0837BD4680BD58
:100D6000840000200038014080B586B000AFFFF756
:100D7000CBFFFFF719FA4FF4E133BB600023BB73DD
:100D800000237B7300233B730023FB730C233B7115
:100D9000064B7B6120233B743B1D05491846FFF73A
:100DA00025FE0348FFF7E2FEFEE700BF3D0D000809
:100DB000003801400D488546AFF300800C480D49CE
:100DC0000D4A002302E0D458C4500433C4188C42A6
:100DD000F9D30A4A0A4C002301E013600432A2420C
:100DE000FBD300F011F8FFF7BFFFFEE7002800205B
:100DF0000000002018000020700E000818000020DD
:100E000088000020FEE7000070B500250C4E0D4C58
:100E1000A41BA410A54209D100F01AF800250A4E1F
:100E20000A4CA41BA410A54205D170BD56F825306C
:100E300098470135EEE756F8253098470135F2E737
:100E4000680E0008680E0008680E00086C0E0008A6
:100E5000F8B500BFF8BC08BC9E467047F8B500BFA7
:080E6000F8BC08BC9E46704777
:040E68005501000828
:040E6C003101000848
:100E70000000000001020304000000000000000068
:080E8000010203040607080942
:0400000508000DB52D
:00000001FF
