:100000000C942A000C9447000C9447000C94470071
:100010000C9447000C9447000C9447000C94470044
:100020000C9447000C9447000C9447000C94470034
:100030000C9447000C9447000C9447000C94470024
:100040000C9447000C9447000C9447000C94470014
:100050000C94470011241FBECFE5D4E0DEBFCDBF16
:1000600011E0A0E6B0E0EAEFF5E202C005900D92E3
:10007000AE37B107D9F711E0AEE7B1E001C01D928C
:10008000A038B107E1F70E94930F0C94FB120C9477
:100090000000EF92FF920F931F937B018C0120E0F1
:1000A00030E040E05FE40E94490388238CF0C801FF
:1000B000B70120E030E040E05FE40E94C1010E940F
:1000C00007049B01AC01205030404040504806C01E
:1000D000C801B7010E9407049B01AC01B901CA0124
:1000E0001F910F91FF90EF900895A0E0B0E0EBE733
:1000F000F0E00C942310DC012B01FA019C9192306A
:1001000008F439C1EB018881823008F433C194309E
:1001100069F4843009F02FC111969C91119789815F
:10012000981709F428C1A3E7B0E025C1843009F489
:1001300021C18230A9F4923009F01DC19A01AD01AC
:1001400088E0EA010990AE01E90109929E0181501F
:10015000C1F7E201898111969C918923818308C1AD
:10016000923009F407C112962D903C901397EB0141
:100170008A819B811496AD90BD90CD90DC901797AD
:10018000EC80FD800E811F819101281B390BB90184
:1001900037FF04C066277727621B730B6032710537
:1001A0000CF061C0121613066CF537014801062EDB
:1001B00004C096948794779467940A94D2F721E0C8
:1001C00030E040E050E004C0220F331F441F551FB1
:1001D0006A95D2F721503040404050402E213F21B7
:1001E00040235123211531054105510521F021E01E
:1001F00030E040E050E079018A01E628F72808293C
:1002000019293CC0232BD1F1260E371E350146019A
:10021000062E04C096948794779467940A94D2F734
:1002200021E030E040E050E004C0220F331F441FC3
:10023000551F6A95D2F721503040404050402A2146
:100240003B214C215D21211531054105510521F04E
:1002500021E030E040E050E059016A01A628B728CB
:10026000C828D9280BC0821593052CF01C01AA249C
:10027000BB24650103C0EE24FF24870111969C91E5
:10028000D20111968C91981709F445C0992339F041
:10029000A80197012A193B094C095D0906C0A6016E
:1002A00095012E193F09400B510B57FD08C01182D3
:1002B0003382228224833583468357831DC081E0A5
:1002C00081833382228288279927DC01821B930B4A
:1002D000A40BB50B84839583A683B7830DC0220F2F
:1002E000331F441F551F24833583468357838281E0
:1002F000938101979383828324813581468157813D
:10030000DA01C9010197A109B1098F5F9F4FAF4F72
:10031000BF4328F30BC0918333822282EA0CFB1C7B
:100320000C1D1D1DE482F5820683178383E0808304
:10033000248135814681578157FF1AC0C901AA27F8
:1003400097FDA095BA2F81709070A070B0705695EF
:10035000479537952795822B932BA42BB52B848318
:100360009583A683B7838281938101969383828349
:10037000DF0101C0D201CD01CDB7DEB7E2E10C94BF
:100380003F10A0E2B0E0E7ECF1E00C942F1069839D
:100390007A838B839C832D833E834F835887E9E048
:1003A000EE2EF12CEC0EFD1ECE010196B7010E943F
:1003B0007F058E010F5E1F4FCE010596B8010E948A
:1003C0007F058A8991E089278A8BC701B801AE0130
:1003D000475E5F4F0E9475000E94AA04A096E6E067
:1003E0000C944B10A0E2B0E0E8EFF1E00C942F1079
:1003F00069837A838B839C832D833E834F835887C5
:10040000F9E0EF2EF12CEC0EFD1ECE010196B701A6
:100410000E947F058E010F5E1F4FCE010596B80129
:100420000E947F05C701B801AE01475E5F4F0E9481
:1004300075000E94AA04A096E6E00C944B10A0E27E
:10044000B0E0E5E2F2E00C94231069837A838B83B9
:100450009C832D833E834F835887CE010196BE0136
:10046000675F7F4F0E947F05CE010596BE016F5EDC
:100470007F4F0E947F059985923088F0898982306C
:10048000C8F0943019F4823051F404C0843029F457
:10049000923081F483E790E0C6C0923049F420E0C6
:1004A0009A858A89981321E02A87CE010996BBC0D4
:1004B000823049F420E09A858A89981321E02A8BBA
:1004C000CE014196B0C02D843E844F8458886D88FB
:1004D0007E888F88988CEE24FF248701AA24BB2471
:1004E000650140E050E060E070E0E0E0F0E0C10174
:1004F00081709070892BE9F0E60CF71C081D191D1E
:100500009A01AB012A0D3B1D4C1D5D1D80E090E062
:10051000A0E0B0E0E614F7040805190520F481E036
:1005200090E0A0E0B0E0BA01A901480F591F6A1F8E
:100530007B1FAA0CBB1CCC1CDD1C97FE08C081E0F5
:1005400090E0A0E0B0E0A82AB92ACA2ADB2A3196B6
:10055000E032F10549F0660C771C881C991C569412
:10056000479437942794C3CFFA85EA892B893C892D
:100570008B859C85280F391F2E5F3F4F17C0CA01FE
:1005800081709070892B61F016950795F794E79428
:1005900080E090E0A0E0B0E8E82AF92A0A2B1B2BC3
:1005A00076956795579547952F5F3F4F77FDE7CF36
:1005B0000CC0440F551F661F771F17FD4160EE0CDE
:1005C000FF1C001F111F21503040403090E05907A0
:1005D00090E0690790E4790760F32B8F3C8FDB0193
:1005E000CA018F779070A070B07080349105A1051A
:1005F000B10561F447FD0AC0E114F10401051105DC
:1006000029F0405C5F4F6F4F7F4F40781A8EFE1786
:1006100011F081E08A8F4D8F5E8F6F8F78A383E01A
:10062000898FCE0149960E94AA04A096E2E10C941B
:100630003F10A8E1B0E0EFE1F3E00C942F106983E4
:100640007A838B839C832D833E834F83588789E0F5
:10065000E82EF12CEC0EFD1ECE010196B7010E9492
:100660007F058E010F5E1F4FCE010596B8010E94D7
:100670007F058985823040F08989823028F0C70162
:10068000B8010E94F70501C08FEF6896E6E00C9470
:100690004B10A8E1B0E0EFE4F3E00C942F10698375
:1006A0007A838B839C832D833E834F83588789E095
:1006B000E82EF12CEC0EFD1ECE010196B7010E9432
:1006C0007F058E010F5E1F4FCE010596B8010E9477
:1006D0007F058985823040F08989823028F0C70102
:1006E000B8010E94F70501C08FEF6896E6E00C9410
:1006F0004B10A8E1B0E0EFE7F3E00C942F10698312
:100700007A838B839C832D833E834F83588789E034
:10071000E82EF12CEC0EFD1ECE010196B7010E94D1
:100720007F058E010F5E1F4FCE010596B8010E9416
:100730007F058985823040F08989823028F0C701A1
:10074000B8010E94F70501C081E06896E6E00C94CC
:100750004B10A8E0B0E0EFEAF3E00C942C109B0102
:10076000AC0183E08983DA01C9018827B7FD83954D
:100770009927AA27BB27B82E211531054105510518
:1007800019F482E089833AC08823A9F0203080E000
:10079000380780E0480780E8580729F460E070E0F7
:1007A00080E09FEC30C0EE24FF248701E21AF30AB8
:1007B000040B150B02C079018A018EE1C82ED12CE1
:1007C000DC82CB82ED82FE820F831887C801B701DD
:1007D0000E945B0401971816190684F4082E04C0C1
:1007E000EE0CFF1C001F111F0A94D2F7ED82FE824F
:1007F0000F831887C81AD90ADC82CB82BA82CE014D
:1008000001960E94AA042896E9E00C944810ACE0F6
:10081000B0E0EDE0F4E00C94331069837A838B83CD
:100820009C83CE010196BE016B5F7F4F0E947F05C6
:100830008D81823061F1823050F1843021F48E81DB
:10084000882351F12EC02F81388537FD20C06E815D
:100850002F3131051CF06623F9F023C08EE190E0C2
:10086000821B930B29853A854B855C8504C0569580
:100870004795379527958A95D2F76623B1F050951D
:100880004095309521953F4F4F4F5F4F0EC020E070
:1008900030E040E050E009C02FEF3FEF4FEF5FE75F
:1008A00004C020E030E040E050E8B901CA012C96D5
:1008B000E2E00C944F10EF92FF920F931F937B0195
:1008C0008C0180E0E81680E0F80681E0080780E00F
:1008D000180788F48FEFE816F1040105110531F0CF
:1008E00028F088E090E0A0E0B0E017C080E090E061
:1008F000A0E0B0E012C080E0E81680E0F80680E0FA
:10090000080781E0180728F088E190E0A0E0B0E057
:1009100004C080E190E0A0E0B0E020E230E040E000
:1009200050E0281B390B4A0B5B0B04C0169507954A
:10093000F794E7948A95D2F7F701E558FF4F808145
:10094000281B310941095109C9011F910F91FF90DD
:10095000EF900895DF92EF92FF920F931F93FC01A7
:10096000E480F58006811781D1808081823048F44F
:1009700080E090E0A0E1B0E0E82AF92A0A2B1B2BE6
:10098000A5C0843009F49FC0823021F4EE24FF24F6
:10099000870105C0E114F1040105110519F4E0E037
:1009A000F0E096C0628173819FEF623879070CF0A6
:1009B0005BC022E83FEF261B370B2A3131052CF0B4
:1009C00020E030E040E050E02AC0B801A701022E4C
:1009D00004C076956795579547950A94D2F781E0BC
:1009E00090E0A0E0B0E004C0880F991FAA1FBB1FD1
:1009F0002A95D2F70197A109B1098E219F21A02341
:100A0000B1230097A105B10521F081E090E0A0E0BD
:100A1000B0E09A01AB01282B392B4A2B5B2BDA0172
:100A2000C9018F779070A070B07080349105A105D6
:100A3000B10539F427FF09C0205C3F4F4F4F5F4F8E
:100A400004C0215C3F4F4F4F5F4FE0E0F0E02030AB
:100A5000A0E03A07A0E04A07A0E45A0710F0E1E05E
:100A6000F0E079018A0127C06038710564F5FB0167
:100A7000E158FF4FD801C7018F779070A070B07018
:100A800080349105A105B10539F4E7FE0DC080E47D
:100A900090E0A0E0B0E004C08FE390E0A0E0B0E020
:100AA000E80EF91E0A1F1B1F17FF05C016950795B4
:100AB000F794E794319687E016950795F794E794B5
:100AC0008A95D1F705C0EE24FF248701EFEFF0E00F
:100AD0006E2F679566276795902F9F77D794DD24B3
:100AE000D7948E2F8695492F462B582F5D29B70115
:100AF000CA011F910F91FF90EF90DF900895FC01C4
:100B0000DB01408151812281622F6F7770E0221FCB
:100B10002227221F9381892F880F822B282F30E0D4
:100B2000991F9927991F11969C93119721153105AB
:100B3000A9F5411551056105710511F482E037C031
:100B400082E89FEF13969C938E9312979A01AB01C4
:100B500067E0220F331F441F551F6A95D1F783E0CA
:100B60008C930DC0220F331F441F551F12968D9179
:100B70009C911397019713969C938E931297203014
:100B800080E0380780E0480780E4580758F314965F
:100B90002D933D934D935C93179708952F3F310507
:100BA00079F4411551056105710519F484E08C93C0
:100BB000089564FF03C081E08C9312C01C9210C0A2
:100BC0002F57304013963C932E93129783E08C93CB
:100BD00087E0440F551F661F771F8A95D1F7706411
:100BE00014964D935D936D937C93179708951F937F
:100BF000DC01FB019C91923008F447C08081823077
:100C000008F443C0943051F411961C91843099F546
:100C10008181682F70E0611B71093FC0843021F031
:100C2000923031F48230B9F18181882389F12DC06D
:100C300011961C9111978230F1F081811817D9F427
:100C400012962D913C91139782819381821793077D
:100C500094F028173907BCF014968D919D910D9052
:100C6000BC91A02D248135814681578128173907F1
:100C70004A075B0718F4112341F00AC08217930753
:100C8000A407B50740F4112319F061E070E005C036
:100C90006FEF7FEF02C060E070E0CB011F9108951D
:100CA000DF93CF930F92CDB7DEB7EAE3F0E0808118
:100CB000EAE3F0E01082A8E3B0E0E8E3F0E080814E
:100CC00084608C93A8E3B0E0E8E3F0E080818D7F5E
:100CD0008C930E942009A8E3B0E0E8E3F0E0808173
:100CE0008B7F8C930F90CF91DF910895DF93CF93FB
:100CF000CDB7DEB76C970FB6F894DEBF0FBECDBF91
:100D000080E090E0A0EAB1E4898F9A8FAB8FBC8F2E
:100D1000698D7A8D8B8D9C8D20E030E04AE753E41D
:100D20000E941F02DC01CB018D8B9E8BAF8BB88F95
:100D30006D897E898F89988D20E030E040E85FE3FF
:100D40000E94790388232CF481E090E09C8B8B8BAC
:100D50003FC06D897E898F89988D20E03FEF4FE7F6
:100D600057E40E94190318164CF5698D7A8D8B8D06
:100D70009C8D20E030E040E251E40E941F02DC0143
:100D8000CB01BC01CD010E944900DC01CB019C8B51
:100D90008B8B0FC089E190E09A8B898B89899A8926
:100DA0000197F1F79A8B898B8B899C8901979C8B92
:100DB0008B8B8B899C89009769F714C06D897E891C
:100DC0008F89988D0E944900DC01CB019C8B8B8B15
:100DD0008B899C89988B8F878F8598890197F1F7EC
:100DE000988B8F87EAE3F0E08FEF8083A7E3B0E092
:100DF000E7E3F0E080818E608C93A8E3B0E0E8E365
:100E0000F0E08081817F8C9380E090E0A0E7B1E406
:100E10008B879C87AD87BE876B857C858D859E85FE
:100E200020E030E04AE753E40E941F02DC01CB01DE
:100E30008F839887A987BA876F81788589859A85F6
:100E400020E030E040E85FE30E94790388232CF43F
:100E500081E090E09E838D833FC06F817885898596
:100E60009A8520E03FEF4FE757E40E9419031816D8
:100E70004CF56B857C858D859E8520E030E040E2D9
:100E800051E40E941F02DC01CB01BC01CD010E9494
:100E90004900DC01CB019E838D830FC089E190E086
:100EA0009C838B838B819C810197F1F79C838B833F
:100EB0008D819E8101979E838D838D819E81009778
:100EC00069F714C06F81788589859A850E944900E9
:100ED000DC01CB019E838D838D819E819A838983E2
:100EE00089819A810197F1F79A8389830E94250865
:100EF00088E30E948D0786E00E948D0780E80E94AB
:100F00008D078FE00E948D076C960FB6F894DEBFB8
:100F10000FBECDBFCF91DF910895DF93CF930F9296
:100F2000CDB7DEB789830E945006EBE3F0E08981FC
:100F30008083A8E3B0E0E8E3F0E08081897F8C93D0
:100F40000E9420090F90CF91DF910895DF93CF93F6
:100F50000F92CDB7DEB789830E945006A8E3B0E0B8
:100F6000E8E3F0E0808182608C93EBE3F0E089813C
:100F70008083A8E3B0E0E8E3F0E080818B7F8C938E
:100F80000E9420090F90CF91DF910895DF93CF93B6
:100F900000D000D0CDB7DEB79C838B831A82198234
:100FA00027C089819A8101969A838983EB81FC818C
:100FB00020818B819C8101969C838B83822F0E9450
:100FC000A60789819A818031910529F481E060E04A
:100FD0000E9404080DC089819A818032910541F4F4
:100FE0000E94250880E060E00E9404081A821982AD
:100FF000EB81FC8180818823A1F60F900F900F90E8
:101000000F90CF91DF910895DF93CF9300D0CDB7AC
:10101000DEB789836A838981882341F48A8180319C
:1010200078F48A8180580E948D070AC089818130B6
:1010300039F48A81803120F48A8180540E948D079E
:101040000F900F90CF91DF910895DF93CF93CDB79D
:10105000DEB781E00E948D07CF91DF910895DF9385
:10106000CF93CDB7DEB729970FB6F894DEBF0FBE8A
:10107000CDBF9987888700D000D000D0EDB7FEB7EC
:101080003196CE0101969183808380E690E0938330
:10109000828388859985958384830E945A108DB7B1
:1010A0009EB706960FB6F8949EBF0FBE8DBFCE01B9
:1010B00001960E94C60729960FB6F894DEBF0FBEB0
:1010C000CDBFCF91DF910895DF93CF93CDB7DEB73A
:1010D000A8970FB6F894DEBF0FBECDBF6F8F78A371
:1010E00089A39AA36F8D78A189A19AA120E030E00D
:1010F00040E050E00E94190318162CF423E630E07B
:1011000038A72FA304C044E650E058A74FA38FA1EF
:1011100098A59E878D876F8D78A189A19AA120E0DF
:1011200030E040E050E00E94190318164CF42F8D77
:1011300038A149A15AA12BA33CA34DA35EA30BC088
:101140008F8D98A1A9A1BAA19C01AD0150582BA3E4
:101150003CA34DA35EA38BA19CA1ADA1BEA1898799
:101160009A87AB87BC8769857A858B859C850E9429
:101170000704DC01CB0198878F838F819885AA278C
:1011800097FDA095BA2FBC01CD010E94A9039B0138
:10119000AC0169857A858B859C850E94C101DC0143
:1011A000CB018B839C83AD83BE836B817C818D81DE
:1011B0009E8120E030E44CE156E40E941F02DC01F5
:1011C000CB01BC01CD010E940704DC01CB019A8355
:1011D0008983ADB7BEB71A970FB6F894BEBF0FBEDE
:1011E000ADBFEDB7FEB73196CE010F9691838083E8
:1011F00086E690E0938382838D859E8595838483A4
:101200008F8198859783868389819A81918780874A
:101210000E945A102DB73EB7265F3F4F0FB6F89485
:101220003EBF0FBE2DBFCE010F960E94C607A896E7
:101230000FB6F894DEBF0FBECDBFCF91DF910895FA
:10124000DF93CF93CDB7DEB72E970FB6F894DEBFFE
:101250000FBECDBFA8E3B0E0E8E3F0E08081877F78
:101260008C9380E090E0A8E4B2E48B879C87AD8704
:10127000BE876B857C858D859E8520E030E04AE7C2
:1012800053E40E941F02DC01CB018F839887A9875A
:10129000BA876F81788589859A8520E030E040E8BB
:1012A0005FE30E94790388232CF481E090E09E8321
:1012B0008D833FC06F81788589859A8520E03FEFD7
:1012C0004FE757E40E94190318164CF56B857C858F
:1012D0008D859E8520E030E040E251E40E941F02AF
:1012E000DC01CB01BC01CD010E944900DC01CB0136
:1012F0009E838D830FC089E190E09C838B838B81DB
:101300009C810197F1F79C838B838D819E8101974E
:101310009E838D838D819E81009769F714C06F81B4
:10132000788589859A850E944900DC01CB019E83DE
:101330008D838D819E819A83898389819A8101978A
:10134000F1F79A838983A8E3B0E0E8E3F0E08081D5
:1013500088608C932E960FB6F894DEBF0FBECDBF7B
:10136000CF91DF910895DF93CF9300D000D00F92FB
:10137000CDB7DEB789836A834B838A81282F30E01B
:101380003D832C838C819D818130910509F443C07C
:101390002C813D81223031052CF48C819D81009778
:1013A00071F0BCC02C813D812230310509F45FC051
:1013B0008C819D818330910509F485C0AFC08B81FC
:1013C0008130A1F4AAE3B0E0EAE3F0E08081482FA5
:1013D0008981282F30E081E090E0022E02C0880F42
:1013E000991F0A94E2F7842B8C9398C0AAE3B0E08B
:1013F000EAE3F0E08081482F8981282F30E081E006
:1014000090E0022E02C0880F991F0A94E2F780959F
:1014100084238C9383C08B818130A1F4A7E3B0E057
:10142000E7E3F0E08081482F8981282F30E081E0D8
:1014300090E0022E02C0880F991F0A94E2F7842BD5
:101440008C936CC0A7E3B0E0E7E3F0E08081482F25
:101450008981282F30E081E090E0022E02C0880FC1
:10146000991F0A94E2F7809584238C9357C08B814F
:101470008130A1F4A4E3B0E0E4E3F0E08081482F00
:101480008981282F30E081E090E0022E02C0880F91
:10149000991F0A94E2F7842B8C9340C0A4E3B0E038
:1014A000E4E3F0E08081482F8981282F30E081E05B
:1014B00090E0022E02C0880F991F0A94E2F78095EF
:1014C00084238C932BC08B818130A1F4A1E3B0E005
:1014D000E1E3F0E08081482F8981282F30E081E02E
:1014E00090E0022E02C0880F991F0A94E2F7842B25
:1014F0008C9314C0A1E3B0E0E1E3F0E08081482FD9
:101500008981282F30E081E090E0022E02C0880F10
:10151000991F0A94E2F7809584238C930F900F9083
:101520000F900F900F90CF91DF910895DF93CF939D
:1015300000D000D0CDB7DEB789836A838981282F98
:1015400030E03C832B838B819C8181309105D1F0ED
:101550002B813C81223031052CF48B819C810097BA
:1015600061F01EC02B813C812230310581F08B81DE
:101570009C818330910581F013C0EAE3F0E08A8119
:1015800080830EC0E7E3F0E08A81808309C0E4E352
:10159000F0E08A81808304C0E1E3F0E08A81808307
:1015A0000F900F900F900F90CF91DF910895DF93E0
:1015B000CF9300D000D00F92CDB7DEB789836A8376
:1015C0004B838A81282F30E03D832C838C819D8141
:1015D0008130910509F443C02C813D8122303105D1
:1015E0002CF48C819D81009771F0BCC02C813D81D1
:1015F0002230310509F45FC08C819D8183309105D3
:1016000009F485C0AFC08B818130A1F4ABE3B0E0B9
:10161000EBE3F0E08081482F8981282F30E081E0E2
:1016200090E0022E02C0880F991F0A94E2F7842BE3
:101630008C9398C0ABE3B0E0EBE3F0E08081482FFF
:101640008981282F30E081E090E0022E02C0880FCF
:10165000991F0A94E2F7809584238C9383C08B8131
:101660008130A1F4A8E3B0E0E8E3F0E08081482F06
:101670008981282F30E081E090E0022E02C0880F9F
:10168000991F0A94E2F7842B8C936CC0A8E3B0E016
:10169000E8E3F0E08081482F8981282F30E081E065
:1016A00090E0022E02C0880F991F0A94E2F78095FD
:1016B00084238C9357C08B818130A1F4A5E3B0E0E3
:1016C000E5E3F0E08081482F8981282F30E081E038
:1016D00090E0022E02C0880F991F0A94E2F7842B33
:1016E0008C9340C0A5E3B0E0E5E3F0E08081482FB3
:1016F0008981282F30E081E090E0022E02C0880F1F
:10170000991F0A94E2F7809584238C932BC08B81D8
:101710008130A1F4A2E3B0E0E2E3F0E08081482F61
:101720008981282F30E081E090E0022E02C0880FEE
:10173000991F0A94E2F7842B8C9314C0A2E3B0E0C3
:10174000E2E3F0E08081482F8981282F30E081E0BA
:1017500090E0022E02C0880F991F0A94E2F780954C
:1017600084238C930F900F900F900F900F90CF9138
:10177000DF910895DF93CF9300D000D0CDB7DEB7CF
:1017800089836A838981282F30E03C832B838B8176
:101790009C8181309105D1F02B813C812230310533
:1017A0002CF48B819C81009761F01EC02B813C81C1
:1017B0002230310581F08B819C818330910581F04D
:1017C00013C0EBE3F0E08A8180830EC0E8E3F0E031
:1017D0008A81808309C0E5E3F0E08A81808304C0C8
:1017E000E2E3F0E08A8180830F900F900F900F90DA
:1017F000CF91DF910895DF93CF9300D000D00F9267
:10180000CDB7DEB78A836B838B81282F30E03D8391
:101810002C838C819D818130910539F12C813D8112
:10182000223031052CF48C819D81009761F052C0EB
:101830002C813D812230310551F18C819D81833095
:101840009105B9F147C0E9E3F0E08081482F8A8132
:10185000282F30E081E090E0022E02C0880F991F0F
:101860000A94E2F78423898335C0E6E3F0E08081BF
:10187000482F8A81282F30E081E090E0022E02C0BC
:10188000880F991F0A94E2F78423898323C0E3E336
:10189000F0E08081482F8A81282F30E081E090E0BD
:1018A000022E02C0880F991F0A94E2F784238983CD
:1018B00011C0E0E3F0E08081482F8A81282F30E0DA
:1018C00081E090E0022E02C0880F991F0A94E2F78F
:1018D0008423898389810F900F900F900F900F9030
:1018E000CF91DF910895DF93CF9300D000D0CDB793
:1018F000DEB78A838A81282F30E03C832B838B815B
:101900009C8181309105D1F02B813C8122303105C1
:101910002CF48B819C81009761F01EC02B813C814F
:101920002230310581F08B819C818330910581F0DB
:1019300013C0E9E3F0E0808189830EC0E6E3F0E0C4
:101940008081898309C0E3E3F0E08081898304C05A
:10195000E0E3F0E08081898389810F900F900F9000
:101960000F90CF91DF910895DF93CF9300D000D0F7
:10197000CDB7DEB789836A838A81282F30E03C8324
:101980002B838B819C818130910549F12B813C8196
:10199000223031052CF48B819C81009761F05AC074
:1019A0002B813C812230310571F18B819C81833008
:1019B0009105E9F14FC0ABE3B0E0EBE3F0E08081EB
:1019C000482F8981282F30E081E090E0022E02C06C
:1019D000880F991F0A94E2F784278C933BC0A8E3F1
:1019E000B0E0E8E3F0E08081482F8981282F30E0E3
:1019F00081E090E0022E02C0880F991F0A94E2F75E
:101A000084278C9327C0A5E3B0E0E5E3F0E0808174
:101A1000482F8981282F30E081E090E0022E02C01B
:101A2000880F991F0A94E2F784278C9313C0A2E3CE
:101A3000B0E0E2E3F0E08081482F8981282F30E098
:101A400081E090E0022E02C0880F991F0A94E2F70D
:101A500084278C930F900F900F900F90CF91DF9170
:101A60000895DF93CF93CDB7DEB786E061E040E025
:101A70000E94B30985E061E041E00E94B30987E07C
:101A800061E041E00E94B30984E061E041E00E942E
:101A9000B309EDE2F0E081E58083CF91DF91089515
:101AA000DF93CF930F92CDB7DEB78983EFE2F0E0FB
:101AB00089818083EEE2F0E080818823DCF7EFE229
:101AC000F0E080810F90CF91DF910895DF93CF9365
:101AD000CDB7DEB786E061E041E00E94B30985E062
:101AE00061E040E00E94B30984E061E040E00E94D0
:101AF000B30987E061E040E00E94B309EDE2F0E065
:101B000080E48083ADE2B0E0EDE2F0E080818F7EA2
:101B10008C93CF91DF910895DF93CF930F92CDB740
:101B2000DEB78983EFE2F0E089818083EEE2F0E0C6
:101B300080818823DCF7EFE2F0E080810F90CF9185
:101B4000DF910895DF93CF93CDB7DEB7E9E2F0E000
:101B500083E38083ABE2B0E0EBE2F0E080818D7F55
:101B60008C93A0E4B0E0E0E4F0E080818F7B8C9384
:101B7000A0E4B0E0E0E4F0E080818F7E8C93A0E40C
:101B8000B0E0E0E4F0E080818F7D8C93A0E4B0E0F1
:101B9000E0E4F0E08081877F8C93A0E4B0E0E0E4B3
:101BA000F0E0808184608C93A0E4B0E0E0E4F0E0B9
:101BB000808182608C93AAE2B0E0EAE2F0E080816A
:101BC0008B7F8C93AAE2B0E0EAE2F0E08081806152
:101BD0008C93AAE2B0E0EAE2F0E0808188608C9326
:101BE000CF91DF910895DF93CF930F92CDB7DEB7FA
:101BF0008983EBE2F0E08081882F90E08072907022
:101C00000097B9F3ECE2F0E0898180830F90CF91E7
:101C1000DF910895DF93CF93CDB7DEB7EBE2F0E02D
:101C200080818823DCF7ECE2F0E08081CF91DF91C6
:101C30000895DF93CF93CDB7DEB729970FB6F89409
:101C4000DEBF0FBECDBF9987888700D000D000D0FF
:101C5000EDB7FEB73196CE0101969183808380E780
:101C600090E09383828388859985958384830E94FD
:101C70005A108DB79EB706960FB6F8949EBF0FBE4A
:101C80008DBFCE0101960E94570E29960FB6F8948B
:101C9000DEBF0FBECDBFCF91DF910895DF93CF930D
:101CA000CDB7DEB780E090E0CF91DF910895DF936C
:101CB000CF9300D00F92CDB7DEB79B838A83198272
:101CC0000EC08981282F30E08A819B81FC01E20FC0
:101CD000F31F80810E94F30D89818F5F8983898141
:101CE000282F30E08A819B81FC01E20FF31F908155
:101CF0008981891730F38DE00E94F30D0F900F90CA
:101D00000F90CF91DF9108950F931F93DF93CF939F
:101D100000D00F92CDB7DEB79B838A831982898169
:101D2000282F30E08A819B818C01020F131F0E94B3
:101D30000A0EF80180830FC089818F5F89838981B2
:101D4000282F30E08A819B818C01020F131F0E9493
:101D50000A0EF80180838981282F30E08A819B81D7
:101D6000FC01E20FF31F80818D3031F78981282F2C
:101D700030E08A819B81FC01E20FF31F10820F90FB
:101D80000F900F90CF91DF911F910F910895DF93E6
:101D9000CF9300D00F92CDB7DEB79A838983EBE261
:101DA000F0E0808188234CF4ECE2F0E08081E9816E
:101DB000FA81808381E08B8301C01B828B810F902D
:101DC0000F900F90CF91DF910895DF93CF930F92F3
:101DD000CDB7DEB78983ECE2F0E0898180830F9094
:101DE000CF91DF910895DF93CF93CDB7DEB7ECE2CB
:101DF000F0E08081CF91DF910895DF93CF93CDB74D
:101E0000DEB7AAE2B0E0EAE2F0E0808180648C9381
:101E1000CF91DF910895DF93CF93CDB7DEB7AAE2DC
:101E2000B0E0EAE2F0E080818F7B8C93CF91DF918C
:101E30000895DF93CF93CDB7DEB7AAE2B0E0EAE230
:101E4000F0E0808180688C93CF91DF910895DF93DB
:101E5000CF93CDB7DEB7AAE2B0E0EAE2F0E080814E
:101E60008F778C93CF91DF910895DF93CF9300D03C
:101E7000CDB7DEB79A83898380917B0190917C01F5
:101E80008130910589F40E94FD0EE981FA818081FB
:101E90000E94E50E89819A8190937F0180937E0153
:101EA00010927C0110927B010F900F90CF91DF91E7
:101EB0000895DF93CF9300D000D0CDB7DEB79A83DB
:101EC000898320917E0130917F0180917D01882F4F
:101ED00090E0F901E80FF91F80818823A1F020919B
:101EE0007E0130917F0180917D01882F90E0F90182
:101EF000E80FF91F80810E94E50E80917D018F5FC0
:101F000080937D0109C081E080937D0181E090E0B4
:101F100090937C0180937B010F900F900F900F9016
:101F2000CF91DF910895DF93CF93CDB7DEB72F9791
:101F30000FB6F894DEBF0FBECDBF1F8680E06FEFF7
:101F40000E94960A0E94310D1F8680E090E0AAE769
:101F5000B4E48B879C87AD87BE876B857C858D8538
:101F60009E8520E030E04AE753E40E941F02DC0136
:101F7000CB018F839887A987BA876F8178858985F8
:101F80009A8520E030E040E85FE30E9479038823EF
:101F90002CF481E090E09E838D833FC06F81788533
:101FA00089859A8520E03FEF4FE757E40E941903A7
:101FB00018164CF56B857C858D859E8520E030E07C
:101FC00040E251E40E941F02DC01CB01BC01CD01C3
:101FD0000E944900DC01CB019E838D830FC089E103
:101FE00090E09C838B838B819C810197F1F79C838C
:101FF0008B838D819E8101979E838D838D819E81B0
:10200000009769F714C06F81788589859A850E9449
:102010004900DC01CB019E838D838D819E819A8353
:10202000898389819A810197F1F79A8389838F85C2
:102030000E94500D982F80E0692F0E94BA0B8F8567
:102040008F5F8F8782CF2F923F924F925F926F92D6
:102050007F928F929F92AF92BF92CF92DF92EF9238
:10206000FF920F931F93CF93DF93CDB7DEB7CA1BB9
:10207000DB0B0FB6F894DEBF0FBECDBF09942A88E4
:10208000398848885F846E847D848C849B84AA848C
:10209000B984C884DF80EE80FD800C811B81AA8119
:1020A000B981CE0FD11D0FB6F894DEBF0FBECDBFE4
:1020B000ED010895AEE0B0E0E0E6F0E10C943110FF
:1020C0000D891E8986E08C831A8309838FEF9FE731
:1020D0009E838D839E01275E3F4FCE0101966F89BF
:1020E000788DA9010E947E102F813885020F131F61
:1020F000F80110822E96E4E00C944D10ABE0B0E0B5
:10210000E4E8F0E10C9423103C012B015A01FC019E
:1021100017821682838181FD03C06FEF7FEFC6C1F6
:102120009AE0892E1E010894211C311CF3012381A1
:10213000F20123FD859123FF81912F01882309F46A
:10214000B2C1853239F423FD859123FF81912F019E
:10215000853229F490E0B3010E947112E7CF982FE5
:10216000FF24EE249924FFE1FF15D0F09B3269F0A3
:102170009C3228F4903259F0933291F40EC09D3283
:1021800049F0903369F441E024C052E0F52A84E03C
:10219000F82A28C098E0F92A25C0E0E1FE2A22C0EA
:1021A000F7FC29C0892F80538A3070F4F6FE05C0F1
:1021B000989C902C1124980E15C0E89CE02C1124BA
:1021C000E80EF0E2FF2A0EC09E3229F4F6FC6BC145
:1021D00040E4F42A07C09C3619F450E8F52A02C0FE
:1021E000983649F4F20123FD959123FF91912F0137
:1021F000992309F0B8CF892F8554833018F0805285
:10220000833038F444E050E0A40EB51E5FE35983F8
:102210000FC0933631F0933779F0933509F056C0FB
:1022200020C0F5018081898342E050E0A40EB51EF4
:10223000610101E010E012C0F501C080D180F6FC20
:1022400003C06FEF7FEF02C0692D70E042E050E005
:10225000A40EB51EC6010E9466128C015FE7F5222E
:1022600014C0F501C080D180F6FC03C06FEF7FEF92
:1022700002C0692D70E042E050E0A40EB51EC60118
:102280000E945B128C0150E8F52AF3FE07C01AC0C9
:1022900080E290E0B3010E947112EA948E2D90E0EA
:1022A00008171907A8F30EC0F601F7FC8591F7FE91
:1022B00081916F0190E0B3010E947112E110EA94E4
:1022C000015010400115110579F7EAC0943611F05C
:1022D000993669F5F7FE08C0F50120813181428108
:1022E000538184E090E00AC0F501808191819C01D6
:1022F000442737FD4095542F82E090E0A80EB91E88
:102300009FE6F92257FF09C05095409530952195D9
:102310003F4F4F4F5F4FE0E8FE2ACA01B901A101CC
:102320002AE030E00E949D12D82ED21840C0953786
:1023300029F41F2D1F7E2AE030E01DC01F2D197FBC
:102340009F3661F0903720F4983509F0ACC00FC08B
:10235000903739F0983709F0A6C004C028E030E083
:102360000AC0106114FD146020E130E004C014FDC7
:10237000166020E132E017FF08C0F501608171812D
:102380008281938144E050E008C0F5018081918111
:10239000BC0180E090E042E050E0A40EB51EA10137
:1023A0000E949D12D82ED2188FE7F82EF122F6FE49
:1023B0000BC05EEFF522D91438F4F4FE07C0F2FC2E
:1023C00005C08FEEF82202C01D2D01C0192DF4FEAC
:1023D0000DC0FE01ED0DF11D8081803319F499EEE1
:1023E000F92208C01F5FF2FE05C003C08F2D86785A
:1023F00009F01F5F0F2DF3FC14C0F0FE0FC01E1577
:1024000010F09D2C0BC09D2C9E0C911A1E2D06C009
:1024100080E290E0B3010E9471121F5F1E15C0F3AD
:1024200004C01E1510F4E11A01C0EE2404FF0FC011
:1024300080E390E0B3010E94711202FF1DC001FD14
:1024400003C088E790E00EC088E590E00BC0802FC5
:10245000867891F001FF02C08BE201C080E2F7FCB8
:102460008DE290E0B3010E94711206C080E390E01B
:10247000B3010E9471129A94D914C0F3DA94F10155
:10248000ED0DF11D808190E0B3010E947112DD20FD
:10249000A9F706C080E290E0B3010E947112EA94AD
:1024A000EE20C1F743CEF30166817781CB012B96F5
:1024B000E2E10C943F10FC01059061507040011066
:1024C000D8F7809590958E0F9F1F0895FC0161505D
:1024D000704001900110D8F7809590958E0F9F1F46
:1024E00008950F931F93CF93DF938C01EB018B81A2
:1024F00081FF1BC082FF0DC02E813F818C819D8199
:102500002817390764F4E881F9810193F983E88396
:1025100006C0E885F985802F0995892B31F48E81D5
:102520009F8101969F838E8302C00FEF1FEFC8012A
:10253000DF91CF911F910F910895FA01AA272830BA
:1025400051F1203181F1E8946F936E7F6E5F7F4F80
:102550008F4F9F4FAF4FB1E03ED0B4E03CD0670FFC
:10256000781F891F9A1FA11D680F791F8A1F911D4F
:10257000A11D6A0F711D811D911DA11D20D009F49F
:1025800068943F912AE0269F11243019305D3193E1
:10259000DEF6CF010895462F4770405D4193B3E0CA
:1025A0000FD0C9F7F6CF462F4F70405D4A3318F071
:1025B000495D31FD4052419302D0A9F7EACFB4E022
:1025C000A6959795879577956795BA95C9F70097DA
:1025D0006105710508959B01AC010A2E069457957B
:1025E000479537952795BA95C9F7620F731F841FD2
:0A25F000951FA01D0895F894FFCF79
:1025FA00256400002D00257325642E2530346400DF
:10260A00256400000000000000000000010202032F
:10261A00030303040404040404040405050505056E
:10262A00050505050505050505050506060606064B
:10263A000606060606060606060606060606060630
:10264A00060606060606060606060607070707071B
:10265A000707070707070707070707070707070700
:10266A0007070707070707070707070707070707F0
:10267A0007070707070707070707070707070707E0
:10268A0007070707070707070707070808080808CB
:10269A0008080808080808080808080808080808B0
:1026AA0008080808080808080808080808080808A0
:1026BA000808080808080808080808080808080890
:1026CA000808080808080808080808080808080880
:1026DA000808080808080808080808080808080870
:1026EA000808080808080808080808080808080860
:1026FA000808080808080808080808080808080850
:0E270A00080808080808080808080801000167
:00000001FF
